:020000040800F2
:1000000028AF0020ED020008F5020008F702000802
:10001000F9020008FB020008FD02000800000000D1
:10002000000000000000000000000000FF020008C7
:10003000010300080000000095020008B91E000836
:100040000703000807030008070300080703000868
:100050000703000807030008070300080703000858
:100060000703000807030008070300080703000848
:100070000703000807030008070300080703000838
:100080000703000807030008070300080703000828
:100090000703000807030008070300080703000818
:1000A0000703000807030008070300080703000808
:1000B00007030008070300080703000807030008F8
:1000C00007030008070300080703000807030008E8
:1000D00007030008070300080703000807030008D8
:1000E00007030008070300080703000807030008C8
:1000F00007030008070300080703000807030008B8
:1001000007030008070300080703000807030008A7
:100110000703000807030008070300080703000897
:100120000703000807030008070300080703000887
:1001300000F002F800F090F80AA090E8000C824469
:100140008344AAF10107DA4501D100F085F8AFF246
:10015000090EBAE80F0013F0010F18BFFB1A43F0A5
:10016000010318471428000034280000103A24BF67
:1001700078C878C1FAD8520724BF30C830C144BF0C
:1001800004680C607047000000230024002500264E
:10019000103A28BF78C1FBD8520728BF30C148BFEA
:1001A0000B6070476E2900F0B581702900F0F7826E
:1001B000662902F04F83652902F04C83672902F01B
:1001C00049836129AFF3008003681B0A28BF41F00F
:1001D0008001692900F06281642900F05F8175293E
:1001E00000F05C816F2900F08582782900F0C382DD
:1001F000E92900F01F82E42900F01C82F52900F0B3
:100200001982EF2900F08282F82900F0C282036887
:10021000DB0928BF41F08001632900F0448673297F
:1002200000F04986E32900F05486F32900F059864E
:10023000002070471FB500F0A5FE0400002000213B
:1002400002F0F2FA401C60600020002102F0D6FAB1
:10025000E0601FBD10B510BD00F067FE1146FFF74E
:10026000E9FF02F0FFF900F03FFF03B4FFF7F2FFF0
:1002700003BC00F087FF000004484FF0FF0101704D
:1002800003484FF0805101607047000022ED00E00C
:1002900004ED00E072B6EFF3098028B1203880E861
:1002A000F00F084909680860064807490A680260B3
:1002B000106890E8F00F203080F309884EF0040EAB
:1002C00062B670471C00002018000020EFF3098080
:1002D000704780F309887047EFF30880704780F318
:1002E0000888704740BA7047C0BA704709488047CD
:1002F00009480047FEE7FEE7FEE7FEE7FEE7FEE708
:10030000FEE7FEE7FEE7FEE704480549034A054B22
:1003100070470000F11E00083101000828AB0020E2
:1003200028AF002028AB00201CB50C46064B7B44B0
:1003300069460090204600F006F904460020694610
:1003400000F014F920461CBD3B02000040EA010306
:10035000024630B59B0710D14FF0013400E008C2CF
:1003600008C91D1B9D4315EAC41FF8D013F0FF01F7
:1003700002F8011B0DD01B0AF8E711F8013B002B16
:1003800002F8013B05D011F8013B002B02F8013BBC
:10039000F3D130BD10B5431C02E010F8011B71B160
:1003A0008107FAD14FF0013202C88C1A8C4314EA4B
:1003B000C211F9D0C01A0A0603D0C01E10BDC01A5F
:1003C00010BD0A0401D0801E10BD0902FCD0401EE1
:1003D00010BD70477047704770B504468569006866
:1003E000C10601D5302600E02026C00707D070BD29
:1003F000D4E9012130469047206A401C20626D1EDE
:10040000F6D570BD70B5044685690078C00707D180
:1004100070BDD4E9012120209047206A401C206251
:100420006D1EF6D570BD09684A0501D540B270470A
:10043000C905FCD500B2704709684A0501D5C0B2AC
:100440007047C905FCD580B2704770B50C460546AB
:10045000012A05D02878800600D5EA69002302E049
:10046000012305E05B1C934202D2E05C0028F9D135
:10047000A869E618C01AA861286A184428622846A4
:10048000FFF7AAFF04E0D5E9012114F8010B90471A
:10049000B442F8D32846FFF7B5FF70BD2DE9F0410F
:1004A0000646002410687529314616A510D0FFF7BE
:1004B000BAFF002802DA404213A507E031688A0734
:1004C00001D512A502E0490704D511A5012401E0D8
:1004D000FFF7B2FF00210A2206F1240709E0B0FB72
:1004E000F2FCB0FBF2F302FB1C00303078541846EB
:1004F000491C0028F3D123462A463046BDE8F04186
:1005000000F061BA000000002D0000002B00000088
:100510002000000011680268006A530501D50870C8
:100520000AE0D30501D5088006E0130603D5C217FB
:10053000C1E9000200E008600120704701694A1C1F
:1005400002610878704700B58FB0CDE90131002114
:10055000059105497944CDE903101146684600F03C
:1005600029F90FB000BD0000E5FFFFFF0A6802F89F
:10057000010B0A60704700002DE9FF5F15468A46AF
:100580000446DFF8AC80F8440027D8E900103E4666
:10059000CDE9001010E03AF816106A4602A800F003
:1005A000A4FC411C07D02178890603D5E2693918DB
:1005B00091420DD80744761C2078800602D5E06968
:1005C000B84205DDAE42E6DB3AF816000028E2D17B
:1005D000A069C01BA0612046FFF7FEFED8E900100D
:1005E000CDE90010002017E03AF818106A4602A87A
:1005F00000F07BFCB0F1FF3F81460BD000250DF1F0
:10060000080B05E0D4E901211BF8050090476D1C9B
:100610004D45F7D308F10100B0428046E4DB206A83
:10062000384420622046FFF7EDFEBDE8FF9F000042
:10063000CE2200002DE9F0418046D21D22F00702B3
:100640000025D2E90002F52915A614D0011E72F189
:10065000000106DA0023D0EB030063EB020211A6CF
:1006600008E0D8F800108B0701D50FA602E0490773
:1006700001D50EA601251146002408F1240704E047
:1006800000F05CF930323A55641C50EA0102F7D1AF
:100690002B46324621464046BDE8F04100F093B972
:1006A000000000002D0000002B00000020000000D2
:1006B00030B4002100F1240408E002F00705D2085C
:1006C000303542EA4372DB086554491C52EA03059F
:1006D000F3D10468002310A2250708D504F02004F4
:1006E0000C4304D0C46901230CA2641EC46130BC55
:1006F00000F069B910B5044621461068FFF79CFE6A
:1007000002462046BDE810400023D1E7D21D22F06A
:100710000701D1E90023CBE7000000003000000012
:10072000F0B40D460188090502D5214C7C4402E055
:100730001F4C7C440E34002100F1240608E002F036
:100740000F071209E75D42EA03721B097754491C3F
:1007500052EA0307F3D102780023120704D5702D63
:1007600006D009B1022311342246F0BC00F02BB9A7
:1007700001231034F8E770B504460D462146106891
:10078000FFF75AFE024629462046BDE87040002386
:10079000C6E7D21D22F00703D3E90023C0E70368B0
:1007A000126843F0200303600823C3610023B7E706
:1007B000302100002DE9F05F894604464FF0000A21
:1007C000DFF874B1FB44C0F820A02046E1688847F8
:1007D000002874D0252806D0D4E901219047206A4A
:1007E000401C2062F1E700265F462046E16888470A
:1007F0002028054607DB312D05D2781910F8200C8A
:1008000008B10643F1E7B00701D526F00406C4F8A5
:100810001CA00027C4F818A02A2D09D0284601F0F2
:1008200096FD38B304EB8708303DC8F8185019E03E
:1008300059F8041B204604EB87029161E168884760
:10084000012F054618D1E069002820DA26F020069D
:100850001DE0D8F8180000EB800005EB40003038B0
:10086000C8F818002046E1688847054601F06FFD8A
:100870000028EED1012F0AD02E2D08D12046E168A4
:1008800088477F1C0546022F46F02006C4DBA0697E
:10089000002803DA404246F00106A061F00701D0CB
:1008A00026F010066C2D0BD0682D09D04C2D39D0B8
:1008B0006A2D35D0742D35D07A2D33D016E038E03E
:1008C000E1682F4620468847B842054609D16C2F7B
:1008D00026D04FF48060E1680643204688470546ED
:1008E00004E06C2F1AD04FF4807006430DB3A5F1CD
:1008F0004100192802D8203546F400664A462946A8
:10090000204626604E46FFF74DFC80B101280BD0F3
:10091000F61D26F0070000F1080956E74020E4E73D
:100920008020D8E70020D6E706F104094DE72846E5
:1009300052E7206ABDE8F09FC020000030B5B0F15A
:100940000A024FEA900E71F100034EEA817EB0EB8D
:100950000E0061EB91014FEA101E4EEA017E10EB92
:100960000E0041EB11114FEA102E4EEA016E10EB12
:100970000E0041EB11214FEA104E4EEA014E10EBF2
:100980000E0041EB1141401841F100014FEAD00047
:1009900040EA41704FEAD10110EB80054FEA810433
:1009A00044EA907444EB01046D1944EB0404521BB7
:1009B000A3414FF0000348BF0A3200D530BD401CB0
:1009C00041F1000130BD2DE9F0470D4699469246B0
:1009D000044600F124080168880604D5E06921F086
:1009E0001001216000E00120A84201DD471B00E06A
:1009F0000027A1697A1902EB0900081AA061207882
:100A0000C00602D42046FFF7E7FC002608E0D4E940
:100A100001211AF806009047206A401C761C2062CB
:100A20004E45F4DB2078C0060AD52046FFF7D4FCFB
:100A300006E0D4E9012130209047206A401C206262
:100A4000381EA7F10107F4DC07E0D4E9012118F80A
:100A500005009047206A401C2062281EA5F1010570
:100A6000F3DC2046FFF7CEFC2078000602D50220FA
:100A7000BDE8F0870120FBE770472DE9FF4F0C46EA
:100A80001E464FF0FF378BB0D2E90001DDF86080E1
:100A90000A908A46C1F30A5505B93D460021084629
:100AA0004FF00000BAF1000F00F4400005DA00EB4F
:100AB00080004FF4400101EA50004FEA9059B9F12B
:100AC000010F00DDB9460A9850EA4A000ED044F6FC
:100AD0001050A5F2FF3545432F14B8F1000F1ED07A
:100AE0007542291E1EDDC9F100021CE0B8F1010F9C
:100AF0004FF0000001D0302103E0F24305E0215423
:100B0000401CB042FBDB30460022002121540B99EF
:100B1000C1F80880C1E900200FB0BDE8F08FBD1B0F
:100B20006D1CDEE74A4600DA694206A800F06EFA5C
:100B300006AB93E8070003AB83E8070050460A9929
:100B400000F027FB8DE80700A0F500501F3800904B
:100B50000398002D09DD42F21F014A46084403A90B
:100B60000390684600F086FD08E0A0F500504A4674
:100B70001F3803A90390684600F090FD8DE8070038
:100B80000004000C03D04FF0FF30410800E0104695
:100B9000B8F1000F03D00022009215461EE0751E2A
:100BA00005D4FFF7CBFE303262556D1EF9D5B34642
:100BB0000122084302D000227F1C04E02078302864
:100BC00001D100227F1E002A099786D01DE0112D39
:100BD00007DAFFF7B3FE303262556D1C50EA0102AE
:100BE000F5D1084302D00098C8B10EE00021681E7C
:100BF00005E0235C625C63542254401E491C814220
:100C0000F7DBAB46A81B401E0990002004F80B0040
:100C10000B98099AC0F80880C0E9002B7CE71126E0
:100C20004FF0000859E72DE9F04F88460446D21DE1
:100C300022F0070191B0D1E90001CDE90A0101F0EC
:100C400072FB02460B98C00F01D02D2007E02068F0
:100C5000810701D52B2002E0202101EAC000032AF0
:100C6000099001D0072A05DB03464146204600F0E3
:100C70008DF90BE12078800601D5E06900E00620BF
:100C8000B8F1650F814606D0B8F1660F18D0B8F1FB
:100C9000670F70D131E00020B9F1110F009001DB36
:100CA000112301E009F101030AAA01A90CA8FFF729
:100CB000E4FEDDE90C70002609F10105834647E0FA
:100CC00001204B4600904FF000470AAA01A90CA84A
:100CD000FFF7D3FEDDE90DB00C995D46002610B993
:100CE00009F101000D18B9EB050003D4C0F1FF367E
:100CF00009F10105A5EB09002BE0B9F1010F01DABB
:100D00004FF001090020B9F1110F0090484601DDB4
:100D1000112300E003460AAA01A90CA8FFF7ADFEC3
:100D2000DDE90C704D4600268346207800070AD482
:100D3000AB4500DA5D4601A8012D04DD411911F82B
:100D4000011C302907D04F4502DA17F1040F04DAED
:100D5000012082460FE06D1EEEE7002F02DCED1B46
:100D60003E4403E0781CA84200DD7D1CB81B00F166
:100D7000010A4FF000472078000703D4AA4501DBA1
:100D80004FF0FF3A0021B7F1004F0DF143088DF805
:100D9000431024D002202B23002F01DA7F422D2381
:100DA0000A21021EA0F1010000DC5FB197FBF1FCFB
:100DB00097FBF1F201FB1C7C17460CF1300C08F894
:100DC00001CDEEE7A8F1010003702188090501D5E6
:100DD000452100E06521A0F1010800F8011C0998F7
:100DE0000FA9A1EB0807FF1D00B10120411901EB7C
:100DF000EA70A1693844081A401EA0612078C00634
:100E000002D42046FFF7E8FA099828B1D4E9012175
:100E10009047206A401C20622078C00622D52046D8
:100E2000FFF7DAFA1EE0002E04DBB34502DD01A86D
:100E3000805D00E03020D4E901219047206A401C09
:100E40002062761CAAF101005FEA000A0AD100F0D4
:100E500099F8C0680168405CD4E901219047206A94
:100E6000401C2062281EA5F10105DCDC07E0D4E966
:100E7000012118F8010B9047206A401C2062381E9F
:100E8000A7F10107F3DC2046FFF7BCFA032011B0FD
:100E900043E610B5436913B1AFF3008001E0FFF7FB
:100EA000D4FA012010BD127800F124010A7000224A
:100EB0004A700122EDE711684FF0FF32E9E710B503
:100EC000436913B1AFF3008001E0FFF755FB012048
:100ED00010BD128800F1240182840022C284012204
:100EE000EDE711684FF0FF32E9E770B516460C46A2
:100EF000054600F03FF8036893F80101012806D089
:100F0000FF2C0FD8185D68B101202C7070BDD3F88C
:100F100007013246214603F2071303442846BDE881
:100F2000704018474FF0FF3070BD754600F0E6F88E
:100F3000AE4605006946534620F00700854618B0C6
:100F400020B5FFF7E1F9BDE820404FF000064FF073
:100F500000074FF000084FF0000B21F00701AC46EE
:100F6000ACE8C009ACE8C009ACE8C009ACE8C0090D
:100F70008D46704710B500F005F8001D10BD00BF8C
:100F8000A918000000487047E4AA00202DE9F041AC
:100F90001F46044603260168072A01F4006004DBAB
:100FA00008B116A505E016A503E008B115A500E0F7
:100FB00015A521F010002060A069C01EA0610FB12E
:100FC000401EA0612046FFF707FA4FB1D4E9012186
:100FD00038469047206A401C2062C01C206206E010
:100FE000206AFAE7D4E9012115F8010B9047761E33
:100FF000F8D22046FFF706FABDE8F0814E414E00D8
:101000006E616E00494E4600696E66002DE9F0473C
:10101000814616468AB0334878440DC88DE80D00E5
:1010200030487844801C03AC0DC884E80D0041F6BC
:101030009B300844372190FBF1F290FBF1F5A5F1CC
:10104000800501FB12041B3C02D56442012000E034
:101050000020DFF890A080460027FA44AAF1BE0ADB
:101060000DE0E00709D03246684607EB47010AEB7E
:10107000810100F013FB8DE8070064107F1C002C39
:10108000EFD1184F7F44AC3F18E0E80714D007EBCE
:1010900004100DF1180A90E80E008AE80E00C068EE
:1010A000F04201D198190890324606A903A800F031
:1010B000F5FA03AB83E807006D10641C002DE4D142
:1010C00032466946B8F1000F03A802D000F0D2FA08
:1010D00001E000F0E3FAC9E90001C9F808200AB00C
:1010E000BDE8F087FC18000010B50446AFF300809F
:1010F0002046BDE81040FFF7B8B800000048704730
:10110000C4AA00204FF0013C50F8042B51F8043BD6
:101110009A4221D1A2EB0C03934313EACC1317D1CB
:1011200050F8042B51F8043B9A4215D1A2EB0C0362
:10113000934313EACC130BD150F8042B51F8043B22
:101140009A4209D1A2EB0C03934313EACC13DBD0F0
:101150004FF00000704700BFD01A01BAB1FA81F118
:1011600001F0180122FA01F0CB40C1F12001DBB2FD
:10117000C0B2C01A2CFA01F3D11A914311EAC3117B
:10118000E6D1704701491820ABBEFEE726000200F9
:1011900070475FEA400C08BF91F0000F4FEA8C23C4
:1011A0004FEAC12243EA51514FEA1C5018BF00F5E3
:1011B000F0404FEA300018BF41F000415FEA6C5C3C
:1011C00000F02980BCF1FF3F08BF40F0804070472D
:1011D000130C06BF12044FF0100C4FF0000C130E4E
:1011E00004BF12020CF1080C130F04BF12010CF122
:1011F000040C930F04BF92000CF1020CD30F04BF38
:1012000052000CF1010C11464FF00002A0F11F003A
:10121000A0EB0C00704711F0004F08BF704731F091
:1012200000413FF4D5AF0B0C06BF09044FF0100C82
:101230004FF0000C0B0E04BF09020CF1080C0B0F51
:1012400004BF09010CF1040C8B0F04BF89000CF1E1
:10125000020CCB0F04BF49000CF1010CCCF12003B0
:10126000A0EB0C0022FA03F302FA0CF241EA0301AC
:1012700000F10100704720F07F4C80EA030023F06A
:101280007F47ACEB070303F57C5300F0004003F10C
:10129000FF032DE980494FEA154B09B44FEA144387
:1012A00025EA0B4E24EA03480FF2042606EB132727
:1012B00049083E785FEA320203FB0667C7F500077C
:1012C00007FB06F64FEA54374FEAD64606F1020608
:1012D00007FB066CCCF1005C4FEA1C472CEA074C7C
:1012E00007FB06F40CFB06F504EB15464FEA9616D1
:1012F00034BF00204FF000404FEAD13706FB07FC17
:101300004FEA1C4C0CFB0BF7D21B03FB0CF761EBF9
:1013100007010CFB0EF7B0EB074072EB17420CFB1A
:1013200008F734BFA2EB0742B2EB074261EB17416B
:101330004FEA0C444FEA910706FB07FC4FEA1C4CAE
:101340000CFB0BF7B0EBC74072EB573203FB0CF70B
:1013500034BFA2EBC742B2EBC74261EB57310CFB83
:101360000EF7B0EBC70072EB57720CFB08F734BFF7
:10137000A2EBC702B2EBC70261EB5771039F4FEAC2
:10138000816141EA921104EBCC044FEAD1374FEA74
:10139000826206FB07FC42EA90124FEA80604FEA45
:1013A0001C4C0CFB0BF7D21B03FB0CF761EB07018A
:1013B0000CFB0EF7B0EB074072EB17420CFB08F783
:1013C00034BFA2EB0742B2EB074261EB17414FEA91
:1013D0008C554FEA910704EB9C2406FB07FC4FEA6F
:1013E0001C4C0CFB0BF7B0EBC74072EB573203FB06
:1013F0000CF734BFA2EBC742B2EBC74261EB5731E7
:101400000CFB0EF7B0EBC70072EB57720CFB08F742
:1014100034BFA2EBC702B2EBC70261EB577115EB09
:101420004C254FEA816141EA92114FEA82624FEA0C
:10143000D13742EA901206FB07FC44F100044FEA60
:1014400080604FEA1C4C0CFB0BF7D21B03FB0CF724
:1014500061EB07010CFB0EF7B0EB074072EB174294
:101460000CFB08F734BFA2EB0742B2EB074261EB7B
:10147000174115EB1C154FEA813141EA92414FEAC1
:10148000823242EA90424FEA80304FEA0C7644F1D1
:10149000000448EA03434EEA0B484FF0000EB2EB5B
:1014A000080C71EB030724BF624639464EEB0E0E63
:1014B0004FF0000B0018524149414BEB0B0BB2EBC4
:1014C000080C71EB03077BF1000B24BF6246394621
:1014D0004EEB0E0E4FF0000B0018524149414BEB02
:1014E0000B0BB2EB080C71EB03077BF1000B24BF75
:1014F000624639464EEB0E0E51EA020718BF46F01F
:10150000010616EB0E7655F1000254F1000103D5E9
:10151000BDE88901BDE80088BDE88901BDE8004853
:10152000B619524141EB0101A3F1010370478080DC
:101530007F7E7D7C7B7A797877767675747372712D
:1015400071706F6E6E6D6C6C6B6A6A6968686766E5
:1015500066656464636362616160605F5F5E5E5D77
:101560005D5C5C5B5B5A5A595958585757565655EB
:1015700055555454535352525251515050504F4F4D
:101580004F4E4E4D4D4D4C4C4C4B4B4B4A4A4A499D
:1015900049494848484747474746464645454544E0
:1015A0004444444343434342424242414141002B6D
:1015B00026D4770021D01CB54FEA370703B44FF08B
:1015C00010004FF010014FF000000FBCBDE81040BC
:1015D0000BF1010BBBF1010F08BF5FEA170722BF38
:1015E00012F1010211F101014FF0004143F100033A
:1015F00000F0004043EA00007047F9D35708DAE7EB
:1016000046EA064613F1400F4FEA16461FDD13F176
:10161000200FDFBF16430A46002120335B42C8D0AB
:10162000C3F1200746EA064602FA07F74FEA1646D4
:1016300046EA0706C3F1200722FA03F201FA07F788
:1016400021FA03F14FF0000342EA0702B1E746EA4C
:10165000020646EA06464FEA164646EA0106BCBFBF
:1016600046EA0646360C4FF000034FF000024FF0FA
:1016700000019EE72DE9C048934630B491E8380058
:1016800007C831EA400C48BF34EA430C03D5FFF7E2
:10169000F2FDFFF78CFFF0BCBDE800882DE9C048E3
:1016A000934630B491E8380007C810F0804F08BF67
:1016B00013F0804F03D100F005F8FFF778FFF0BC7E
:1016C000BDE8008820F07F4780EA030023F07F4CCC
:1016D00007EB0C03A3F57C5300F00040A3F1FE03DD
:1016E00092F0000F00F0B38095F0000F00F07780CB
:1016F0002DE901494FEA11404FEA144621EA00481A
:1017000000FB06FC24EA064708FB06F607FB08F880
:1017100000FB07F718EB06484CEB164C4FEA124B50
:1017200018EB07484FEA15464CEB174022EA0B4EE0
:101730000BFB06FC25EA06470EFB06F607FB0EFE32
:101740000BFB07F71EEB064E4CEB164C4FF000065A
:101750001EEB074E4CEB174B18EB0B0840F100004B
:1017600018EB0E0B58EB000840F100008F1A4FF0F9
:1017700000013CBFC943661B14BFB5EB040C00213C
:101780003CBFC943F61B4FEA17444EEA8E0E27EAC8
:1017900004454FEA1C4704FB07622CEA074C05FB93
:1017A00007F70CFB05F604FB0CFC16EB074642EBB7
:1017B000174216EB0C4642EB1C421BEB060658EB9D
:1017C0000202414146EA9E0601D5BDE80189B619EB
:1017D000524141EB0101A3F10103BDE801894FEA48
:1017E00014454FEA114724EA054621EA074C05FB58
:1017F00007F406FB07F70CFB06F105FB0CFC11EBED
:10180000074144EB17444FEA124711EB0C4144EBFC
:101810001C4422EA074C05FB07F206FB07F70CFB0A
:1018200006F605FB0CFC16EB074642EB174216EBDF
:101830000C4642EB1C456A1854F1000148BF704742
:10184000B619524141EB0101A3F10103704795F034
:10185000000F37D04FEA11424FEA144721EA0246FF
:1018600024EA074C02FB07F106FB07F70CFB06F422
:1018700002FB0CFC14EB074441EB17414FEA154700
:1018800014EB0C4441EB1C4125EA074C02FB07F525
:1018900006FB07F70CFB06F602FB0CFC16EB0746F3
:1018A00045EB174516EB0C4645EB1C42121951F15E
:1018B000000148BF7047B619524141EB0101A3F145
:1018C000010370474FEA14454FEA114724EA0546E1
:1018D00021EA074C05FB07F106FB07F70CFB06F2B4
:1018E0004FF0000605FB0CFC12EB074241EB1741E1
:1018F00012EB0C4251EB1C4148BF7047921841EB70
:101900000101A3F10103704770B5064606B970BD29
:101910004FF4C87000F0CCFE04461CB911A000F0D2
:101920007FFCF4E70C2000F0C3FE0546AC6004F534
:10193000C6744FF080702060201F04460660A4F13A
:10194000380028600020A8800B4800682946026AF9
:1019500009480068904708480068406907490860DE
:1019600000BFD4E7C8CECEF1D5BBB4B4BDA8CAA7DA
:10197000B0DCA1A30D0A000010000020140000201C
:101980002DE9F04102460025002600200023002416
:10199000002791F803C00CF00F0591F803C00CF07C
:1019A000100CBCF1000F03D091F802C04CEA050501
:1019B00091F800C0BCF1000F31D0146800202BE07A
:1019C0004FF0010C0CFA00F3B1F800C00CEA03066A
:1019D0009E4220D183004FF00F0C0CFA03F7BC435A
:1019E00005FA03FC4CEA040491F803C0BCF1280F8B
:1019F00006D14FF0010C0CFA00FCC2F814C00AE04A
:101A000091F803C0BCF1480F05D14FF0010C0CFA5E
:101A100000FCC2F810C0401C0828D1D31460B1F8F3
:101A200000C0BCF1FF0F34DD546800202EE000F14F
:101A3000080C4FF0010808FA0CF3B1F800C00CEAEA
:101A400003069E4221D183004FF00F0C0CFA03F7DE
:101A5000BC4305FA03FC4CEA040491F803C0BCF152
:101A6000280F05D100F1080C08FA0CF8C2F8148010
:101A700091F803C0BCF1480F07D100F1080C4FF0FA
:101A8000010808FA0CF8C2F81080401C0828CED3D0
:101A90005460BDE8F08110B54FF4A06000F03AF852
:101AA00010BD000070B5002100230F22C47804B3DC
:101AB000154C246804F4E064C4F5E064210AC1F123
:101AC0000403CA40447804FA03F1847814402143A3
:101AD00009010E4C0678A155047804F01F05012475
:101AE000AC4005786D11AD0005F1E025C5F8004169
:101AF00009E0047804F01F050124AC40044D067889
:101B0000761145F8264070BD0CED00E000E400E0E1
:101B100080E100E002490143024A11607047000081
:101B20000000FA050CED00E010B5044607482060FF
:101B3000201D00F011FE0648E060064820610648BE
:101B400060610648A0610648E06110BD911B000875
:101B500021220008091900083D200008AD1E0008D8
:101B6000711D000870B505462A4607A1202000F027
:101B7000D7FC04460120A0600CB9002070BD2046AF
:101B8000FFF7D2FF2046F9E74F53436C61737300B0
:101B90007047000029B1064A92690243044B9A61DA
:101BA00004E0034A92698243014B9A617047000046
:101BB0000010024030B500210022002400232D4DEA
:101BC0006D6805F00C0121B1042905D0082923D145
:101BD00005E0294D056022E0274D05601FE0254DF9
:101BE0006D6805F47012234D6D6805F4803402258C
:101BF00005EB92421CB9214D554305600BE01D4D8C
:101C00006D6805F400351DB11C4D5543056002E0BB
:101C1000194D5543056002E0174D056000BF00BF38
:101C2000144D6D6805F0F0010909154D6B5C0568F0
:101C3000DD4045600F4D6D6805F4E061090A104D07
:101C40006B5C4568DD4085600A4D6D6805F4605148
:101C5000C90A0B4D6B5C4568DD40C560054D6D687C
:101C600005F44041890B074D6B5CC568B5FBF3F586
:101C7000056130BD0010024000127A0000093D00ED
:101C80003C0000204C00002010B500F001F810BD11
:101C90000CB50020019000903348006840F480307B
:101CA0003149086000BF3048006800F400300090FF
:101CB0000198401C0190009818B90198B0F5A06FE8
:101CC000F1D12948006800F4003010B101200090E3
:101CD00001E0002000900098012843D123480068CB
:101CE00040F01000214908600846006820F0030019
:101CF00008600846006840F0020008601A48406822
:101D0000194948600846406848600846406840F401
:101D1000806048600846406820F47C1048600846AF
:101D2000406840F4E81048600846006840F0807061
:101D3000086000BF0C48006800F000700028F9D06F
:101D40000948406820F00300074948600846406899
:101D500040F00200486000BF0348406800F00C00FB
:101D60000828F9D10CBD00000010024000200240FC
:101D700070B50646174800688680002514E01648AE
:101D800000682946826A1448006890470446A08883
:101D900038B910480068844200D103E00F4804605D
:101DA00006E000BF681CC5B20D4800688542E6D356
:101DB00000BF08480068844207D1A08820B10948C4
:101DC00000680649086000E070BDFEF755FA00BFE4
:101DD000FAE700001C00002010000020180000207E
:101DE000140000202000002070B526A000F084FA26
:101DF00028490860084600681421C269254800681F
:101E000090470020FEF765FA2348FFF77DFD214843
:101E10000068416A1F4800688847204908601D48DB
:101E20000068026A084601681A48006890471C4822
:101E300000684FF47A72B0FBF2F0411EB1F1807F7E
:101E400000D31DE021F07F40401E4FF0E0225061A2
:101E500050170F22002807DA13071D0E114B00F050
:101E60000F04241F1D5503E013071C0E0E4B1C54BA
:101E700000BF00204FF0E02290610720106100BFFA
:101E800070BD0000CFB5CDB3C8CECEF1B6D3C1D0B2
:101E90000000000010000020B920000820000020F1
:101EA0002800002018ED00E000E400E010B500205C
:101EB000FFF75EFF10BD000070B500250EE00A4878
:101EC00000682946826A0848006890470446A0884E
:101ED00010B1A088401EA080681CC5B203480068ED
:101EE0008542ECD370BD00001000002014000020DB
:101EF00010B51348006840F0010011490860084619
:101F00004068104908400E494860084600680E497C
:101F100008400B4908600846006820F480200860EB
:101F20000846406820F4FE0048604FF41F008860B7
:101F3000FFF7AAFE4FF000600449086010BD0000E2
:101F4000001002400000FFF8FFFFF6FE08ED00E081
:101F50000AE006480068C16805A088470348006891
:101F6000C1694FF4FA608847F3E7000024000020BD
:101F7000C8CECEF1300D0A000B48006801690B484D
:101F80008847094800680169094888470AE0064807
:101F90000068C16807A0884703480068C16941F22A
:101FA00088308847F3E7000024000020BD1F0008A8
:101FB0000D200008C8CECEF1310D0A000748006898
:101FC00001690748884707E000F0F4FA0348006811
:101FD000C16942F210708847F6E700002400002033
:101FE000E51F00080AE006480068C16805A08847A8
:101FF00003480068C1694FF47A708847F3E700002E
:1020000024000020C8CECEF1330D0A000AE00648B5
:102010000068C16805A0884703480068C1694FF49B
:10202000FA708847F3E7000024000020D5C5BAE81D
:10203000CAC7CBA7B8E7A1A30D0A000070B5002559
:102040002CE019480068416A174800688847044630
:1020500016480068844218D1A06800F01BFB204697
:1020600000F018FB10480068416A0F480068884774
:102070000F4908600C480068026A084601680A486F
:1020800000689047FEF7F8F870BD074800682146E1
:10209000026A054800689047681CC5B20548006898
:1020A0008542CED300BFEFE7100000201C000020C7
:1020B000180000201400002003E020BF0020FFF7DC
:1020C00057FEFAE721B1828942F40052828104E08E
:1020D00082894DF6FF731A408281704702460020C4
:1020E000B1F5007F00D100BF13880B400BB1012078
:1020F00000E000207047F0B50346002400260025CC
:10210000002040F66A17B94200D100BF1846C1F35B
:10211000421401F01F06012707FA06F5012C01D130
:102120000C3004E0022C01D1103000E014301AB160
:1021300007682F43076002E00768AF430760F0BD00
:102140002DE9F04786B005460E460024A24600BFA2
:10215000A1460027B08900B100BF2F462C8A4CF65B
:10216000FF700440F08804432C82AC894EF6F310D3
:102170000440B08831890843718908430443AC8125
:10218000AC8A4FF6FF400440B0890443AC8201A8FA
:10219000FFF710FD1F48874202D1DDF810A001E0D3
:1021A000DDF80CA0A88900F4004040B10AEBCA0099
:1021B00000EB0A1031684900B0FBF1F807E00AEBC8
:1021C000CA0000EB0A1031688900B0FBF1F8642006
:1021D000B8FBF0F004012009642101FB1089A889F3
:1021E00000F4004040B1322000EBC900B0FBF1F038
:1021F00000F00700044308E0322000EB09106421DE
:10220000B0FBF1F000F00F0004432C8106B0BDE8F4
:10221000F087000000380140C1F308028280704757
:102220000FB438B505A800900F48009A0499FEF73E
:102230007BF8002000900C48FEF7ACF885B2002433
:102240000DE000BF40210948FFF748FF0028F9D002
:102250000548015D0548FFF7DFFF601C84B2AC4212
:10226000EFDB38BC5DF814FB60AA002000380140A9
:1022700010B5FFF710FC4FF4E13000F06FFA06A044
:10228000FFF770FC07490860FFF7AEFD05480068DE
:10229000C16805A0884710BDCFB5CDB3C4DABACBAD
:1022A00000000000240000205A484F53B3F5CABC78
:1022B000BBAFB3C9B9A60D0A0000000010B50446B3
:1022C00007482060201D00F047FA0648E0610648F4
:1022D0002062064860620648A0620648206010BD81
:1022E0002523000821270008892400083D24000830
:1022F000D92400081527000870B505462A4607A10D
:102300002C2000F00DF904460120A0600CB900203B
:1023100070BD2046FFF7D2FF2046F9E75A485175B5
:10232000657565007047490050EAC12018BF042058
:102330004A0D18BF40F0010040F2FF72B2EB515F4E
:1023400008BF40F00200012808BF05207047303860
:102350000A2801D2012070470020704770B5054659
:102360000E48007A18B900F01BF8012070BDB5F5D1
:10237000204F11D269090948406830F81120002423
:1023800006E00020054B5B680E1923F81600641C5C
:102390009442F6DB0020E9E70220E7E70400002092
:1023A00000B509494FF420624868002100F0A8F9FF
:1023B00005494FF420420868002100F0A1F90120EE
:1023C0000149087200BD0000040000202DE9F04121
:1023D00006460024A0461848007A08B9FFF7E0FF37
:1023E0001EB94FF0FF30BDE8F081750906F01F00FF
:1023F00000B16D1C40F2FF4418E00F48406830F80F
:10240000140010B908F1010801E04FF00008A845D8
:102410000BD1002705E008494968E21921F812505C
:102420007F1CAF42F7D36001DDE7641E002CE4DAC5
:102430004FF0FF30D7E700000400002010B504463D
:10244000606920B90AA0FFF7EBFE002010BD2069EB
:10245000401CA16990FBF1F201FB12002061606950
:10246000401E6061D4E9030150F82100EEE700004E
:10247000B6D3C1D0CEAABFD52CB3F6D5BBCEAABF9A
:10248000D5A1A30D0A00000070B504460D46D4E99D
:102490000501884203D10CA0FFF7C2FE13E0D4E986
:1024A00004010844A16990FBF1F201FB1206701CC3
:1024B000A16990FBF1F201FB1206E06840F826509A
:1024C0006069401C606170BDB6D3C1D0D2E7B3F67D
:1024D000A1A30D0A0000000070B504460D46606916
:1024E00020B908A0FFF79CFE002070BD2069284499
:1024F000401CA169B0FBF1F201FB1206E06850F844
:102500002600F2E7B6D3C1D0CEAABFD52CBBF1C806
:10251000A1C4DAC8DDCAA7B0DCA1A30D0A0000007F
:102520002DE9F843074688461546384600F0C0F8BE
:102530000646002E21D0102000F0BAF8044614B947
:102540000FA0FFF76DFE2846FDF724FF814600F03F
:10255000AFF8206029462068FDF7F8FE6660A760A6
:1025600012480068E0601148046043463A4631462C
:102570000F480095FFF754FE00BF3046BDE8F883D2
:102580006C775F6F6F70633A206572726F72212093
:102590006D616C6C6F6320616C6C6F6320756E692C
:1025A00074206661696C65642E0D0A0000000020CD
:1025B0003029000870B50D48046854B106E00CA03D
:1025C000D4E90031A268FFF72BFEE468002CF6D1B5
:1025D00002E013A0FFF724FE00F07AF80546282257
:1025E000294616A0FFF71CFE70BD00000000002069
:1025F0006D656D6F7279206C65616B20696E3A2034
:1026000025702C2073697A653A2025642C20646536
:102610007363726962653A2025730D0A0000000039
:102620006C775F6F6F70633A206E6F206D656D6FB2
:102630007279206C65616B2E0D0A000075736564FC
:10264000206D656D6F72793A20256425252C2061F7
:102650006C6C206D656D6F72793A2025644B620D4C
:102660000A000000FFF704FE0748006801690748F8
:102670008847054800680169054888470249096894
:102680008869804700BFFEE724000020511F000832
:10269000791F000870B5044604B970BD034800688E
:1026A000251A2846FFF75AFE00BFF6E7040000206F
:1026B00070B505462846FFF789FE0446601C08B938
:1026C000002070BD014800682044FAE704000020A3
:1026D0000022002106E00948406830F8110000B1EE
:1026E000521C491CB1F5A06FF5D3642050434FF440
:1026F000A063B0FBF3F0C0B27047000004000020FC
:1027000030B5034601E003F8011B141EA2F10102DB
:10271000F9D130BD10B50446E068FFF7BBFF10BD2E
:1027200070B504460D46A800FFF7C2FFE060E06800
:1027300028B904A0FFF774FD0020A06100E0A561A6
:1027400070BD0000B4B4BDA8B6D3C1D0CAA7B0DC78
:10275000A1A30D0A000000007047000010B586B06C
:102760000446012144F20400FFF714FA4FF400700C
:10277000ADF8140003208DF8160018208DF817000E
:1027800005A91C48FFF7FCF84FF48060ADF8140071
:1027900004208DF8170005A91648FFF7F1F8252049
:1027A0008DF8000003208DF801008DF80200012053
:1027B0008DF803006846FFF775F901940020ADF825
:1027C0000800ADF80A00ADF80C00ADF810000820C4
:1027D000ADF80E0001A90848FFF7B2FC002240F254
:1027E00025510548FFF787FC01210348FFF76AFCE4
:1027F00006B010BD000801400038014010B50029A6
:102800000AD00878002807D005487844FEF77AFCFB
:10281000002801D0002010BD0248784410BD0000FF
:102820008E0100008601000010B500290AD008784A
:10283000002807D005487844FEF764FC002801D042
:10284000002010BD0248784410BD00007E01000049
:1028500076010000FEF7E7B900000000000000006C
:1028600030313233343536373839414243444546C6
:1028700040305800303132333435363738396162C0
:1028800063646566403078000400000800000000C2
:1028900000000002000100001000000002400000E3
:1028A000000000A00000000005400000000000C87B
:1028B000000000000C4000000000409C00000000F0
:1028C000194000000020BCBE0000000034400000A1
:1028D000BFC91B8E00000004B5400000504BCFD094
:1028E0006607E2CF010000006C4100003E8251AA61
:1028F000DFEEA73401000000D9420000DCB5A0E201
:102900003A301F97FFFFFFFFB4450000FD25A0C828
:10291000E9A3C14FFFFFFFFFFF3F00000000008061
:1029200000000000FF3F00000000008000000000E9
:102930006C775F6F6F70633A20616C6C6F63206DB2
:10294000656D6F727920696E2025702C2073697A0D
:10295000653A2025642C206F626A6563742074795F
:1029600070653A2025732C20646573637269626513
:102970003A2025730D0A0000C42A00080000002038
:10298000500000006C010008142B000850000020CB
:10299000D8AE0000880100081C00000043000000C1
:1029A000F8FFFFFF0C0000000E0000000F00000009
:1029B0002E0000001001000043000000F8FFFFFFA0
:1029C0000040404040404040404041414141414042
:1029D00040404040404040404040404040404040F7
:1029E0004005020202020202020202020202020286
:1029F000022020202020202020202002020202028B
:102A000002029090909090901010101010101010E2
:102A100010101010101010101010101002020202EE
:102A20000202888888888888080808080808080832
:102A3000080808080808080808080808020202022E
:102A40004000000000000000000000000000000046
:102A50000000000000000000000000000000000076
:102A60000000000000000000000000000000000066
:102A70000000000000000000000000000000000056
:102A80000000000000000000000000000000000046
:102A90000000000000000000000000000000000036
:102AA0000000000000000000000000000000000026
:102AB0000000000000000000000000000000000016
:102AC00000000000000000006000002060A0002066
:102AD00000000000000000000000000000000000F6
:102AE00000000000000000000000000000A24A04F6
:102AF00000000000000000000102030406070809AE
:102B00000000000001020304010203040607080993
:042B100002040608AD
:0400000508000131BD
:00000001FF
