:020000040800F2
:100000002808002021040008290400082B04000807
:100010002D0400082F04000831040008000000002F
:100020000000000000000000000000003304000891
:1000300035040008000000000902000865040008FB
:100040003B0400083B0400083B0400083B04000894
:100050003B0400083B0400083B0400083B04000884
:100060003B0400083B0400083B0400083B04000874
:100070003B0400083B0400083B0400083B04000864
:100080003B0400083B0400083B0400083B04000854
:100090003B0400083B0400083B0400083B04000844
:1000A0003B0400083B0400083B0400083B04000834
:1000B0003B0400083B0400083B0400083B04000824
:1000C0003B0400083B0400083B0400083B04000814
:1000D0003B0400083B0400083B0400083B04000804
:1000E0003B0400083B0400083B0400083B040008F4
:1000F0003B0400083B0400083B0400083B040008E4
:100100003B0400083B0400083B0400083B040008D3
:100110003B0400083B0400083B0400083B040008C3
:100120003B0400083B0400083B0400083B040008B3
:1001300000F002F800F03AF80AA090E8000C8244BF
:100140008344AAF10107DA4501D100F02FF8AFF29C
:10015000090EBAE80F0013F0010F18BFFB1A43F0A5
:10016000010318477805000098050000103A24BFE5
:1001700078C878C1FAD8520724BF30C830C144BF0C
:1001800004680C607047000000230024002500264E
:10019000103A28BF78C1FBD8520728BF30C148BFEA
:1001A0000B6070471FB51FBD10B510BD00F05BFAA6
:1001B0001146FFF7F7FF00F041FA00F079FA03B4B7
:1001C000FFF7F2FF03BC00F081FA0000EFF30980B3
:1001D000704780F309887047EFF30880704780F319
:1001E0000888704740BA7047C0BA704704484FF05B
:1001F000FF01017003484FF080510160704700001B
:1002000022ED00E004ED00E072B6EFF3098028B1C2
:10021000203880E8F00F0849096808600648074957
:100220000A680260106890E8F00F203080F30988B7
:100230004EF0040E62B67047180000201400002033
:100240000CB50020019000906C48006840F48030AC
:100250006A49086000BF6948006800F400300090F7
:100260000198401C0190009818B90198B0F5A06F52
:10027000F1D16248006800F4003010B10120009014
:1002800001E0002000900098012843D15C480068FC
:1002900040F010005A4908600846006820F003004A
:1002A00008600846006840F0020008605348406853
:1002B000524948600846406848600846406840F433
:1002C000806048600846406820F47C10486008461A
:1002D000406840F4E81048600846006840F08070CC
:1002E000086000BF4548006800F000700028F9D0A1
:1002F0004248406820F00300404948600846406892
:1003000040F00200486000BF3C48406800F00C002C
:100310000828F9D10CBD10B5FFF792FF10BD10B53C
:100320003648006840F001003449086008464068DB
:10033000344908403149486008460068324908405D
:100340002E4908600846006820F4802008600846AE
:10035000406820F4FE0048604FF41F008860FFF7FB
:10036000DAFF4FF000602949086010BD10B5002188
:1003700000200022214B5B6803F00C0121B104290D
:1003800006D0082928D107E0214B224C236027E022
:100390001F4B204C236023E0184B5B6803F4701064
:1003A000164B5B6803F48032022303EB904022B9C2
:1003B000194B4343174C23600DE0104B5B6803F46B
:1003C000003323B1144B4343124C236003E0104B22
:1003D0004343104C236003E00D4B0E4C236000BFE1
:1003E00000BF064B5B68C3F303130C4CE15C094B85
:1003F0001B68CB40074C236010BD0000001002407A
:10040000002002400000FFF8FFFFF6FE08ED00E0CC
:1004100000127A000000002000093D0004000020C6
:100420000948804709480047FEE7FEE7FEE7FEE788
:10043000FEE7FEE7FEE7FEE7FEE7FEE704480549C4
:10044000054A064B704700001F03000831010008F1
:10045000280200202808002028040020280400206A
:1004600000BFFEE770B50025002431E0694800EBCD
:10047000C400808840B1674800EBC4008088401EFB
:10048000644901EBC401888005BB6349087800EB2F
:10049000D0714910A0EB41015F4A11705D481146CF
:1004A000097800EBC100808858B901251046017811
:1004B0000078401C1070574800EBC1005749086095
:1004C00004E055480078401C53490870601CC4B2D1
:1004D000022CCBDB1DB94F48103050490860FFF7A4
:1004E00085FE70BD70B5044604B970BD4C48006807
:1004F0008480002521E04849087800EBD07149103C
:10050000A0EB4101444A117042481146097800EBC2
:10051000C100808850B9104601780078401C1070E6
:100520003C4800EBC1003D49086008E03A480078CB
:10053000401C39490870681CC5B2022DDBDB00BFC6
:100540003748006835490968884203D1314810307E
:1005500032490860FFF74AFE00BFC6E730B52E4AB1
:100560001278032A03DB00222B4B1A7030BD00B92E
:10057000FCE701B9FAE74FF080720A600A1F1146E2
:100580001060A1F13802234B234C247843F8342027
:100590000023214A14781278521C1F4D2A701D4ADC
:1005A00002EBC402938000BFE0E770B5FFF7B7FE2F
:1005B0000020FFF70EFE1B49AFF25B10FFF7CEFFE6
:1005C000194800684FF47A72B0FBF2F0411EB1F1A5
:1005D000807F00D31DE021F07F40401E4FF0E022DD
:1005E000506150170F22002807DA13071D0E0F4B1A
:1005F00000F00F04241F1D5503E013071C0E0C4BC5
:100600001C5400BF00204FF0E022906107201061D1
:1006100000BF70BD200000201C000020140000203E
:1006200018000020840000200000002018ED00E0E9
:1006300000E400E000BFFEE700BFFEE70749AFF2BD
:100640000700FFF78BFF0549A031AFF21700FFF756
:1006500085FFFFF7AAFF00BFFEE70000240100208E
:10066000704770477047754600F02CF8AE4605009D
:100670006946534620F00700854618B020B5FFF7BD
:10068000DDFEBDE820404FF000064FF000074FF0C0
:1006900000084FF0000B21F00701AC46ACE8C009A0
:1006A000ACE8C009ACE8C009ACE8C0098D467047A9
:1006B00010B50446AFF300802046BDE81040FFF7B8
:1006C0007EBD000000487047C80100200149182085
:1006D000ABBEFEE72600020070470000FC060008E3
:1006E00000000020200000006C0100081C0700082A
:1006F00020000020080800008801000800A24A0429
:1007000000000000000000000102030406070809C1
:0C071000000000000000000000000000DD
:0400000508000131BD
:00000001FF
