:020000040800F2
:1000000018070020FD110008F70800081309000870
:100010002F0900084B0900086709000800000000CC
:100020000000000000000000000000001B070008A6
:100030001D070008000000001F0700082107000836
:1000400017120008171200081712000817120008EC
:1000500017120008171200081712000817120008DC
:1000600017120008171200081712000817120008CC
:1000700017120008171200081712000817120008BC
:1000800017120008171200081712000817120008AC
:10009000171200081712000817120008171200089C
:1000A0001712000851010008171200081712000863
:1000B000171200081712000817120008171200087C
:1000C000171200081712000817120008171200086C
:1000D00017120008B10A00081712000817120008CA
:1000E000171200081712000817120008171200084C
:1000F000171200081712000817120008171200083C
:10010000171200081712000817120008171200082B
:10011000171200081712000817120008171200081B
:10012000171200081712000817120008171200080B
:10013000DFF818D003F0BEF800F0D8FB03F06CF83D
:1001400000480047C101000803F093F81807002099
:100150006846A0F1200000B500F02DF85DF804EB32
:10016000002804D02DE9F00F8546BDE8F00F00F01F
:10017000A2B8000001B500BF0098411E0091002800
:10018000FAD108BD08B5024612E05B48FFF7F2FF5E
:1001900000BF00BF5948006808B9012000E00020F6
:1001A000009000BF554880300099016000BF00BF3B
:1001B000002AEAD008BD0146514A10681160704714
:1001C0000EB501224F49504801F07DFC0024042562
:1001D000012600BF4B4F4FF4807844EA050040EA07
:1001E00006024146384603F09BF900BF00BF0122DA
:1001F0004649454801F067FC00BF00BF434F4FF040
:10020000040844EA050040EA06024146384603F085
:1002100087F900BF00BF01223D493B4801F053FC74
:1002200001A8002181708171C17100BF4FF4347049
:10023000ADF804006420ADF8080001A9344800F0CE
:1002400078F83349012201F10C00034603F07044B1
:1002500004F10074C3F3130504EB4514226000BFDE
:100260000846012100BF024602F0704303F100730B
:10027000C2F3130403EB4413196000BFFF200346CD
:10028000012219210090234800F0CAFF12E0224801
:10029000FFF770FF00BF00BF2048006808B90120C9
:1002A00000E00020009000BF1C48803000990160F1
:1002B00000BF00BFEBE710B5154901F11000024681
:1002C00002F0704303F10073C2F3130403EB441311
:1002D0000020186000BF10BD10B5AFF25713002208
:1002E00011460F4803F084F8AFF26713002211465D
:1002F0000C4803F07DF810BDA08601000881224261
:1003000000000020000801400010024000140140DD
:10031000002C014000E100E020A107002001214263
:1003200030000020700000200A8802858A888285BB
:100330007047F0B502460B4618881085988890855E
:1003400011880C4670209E7800BF40EA400787EA7B
:10035000400707FB06F505EA000724EA000C47EA18
:100360000C0700BF39460C464FF440709D7900BF22
:1003700040EA400787EA400707FB05F600EA060760
:1003800024EA000C47EA0C0700BF39461180F0BD93
:100390002DE9F0410B46048B25460322002600BFC1
:1003A00042EA420C8CEA420C0CFB06F702EA070C0C
:1003B00025EA02084CEA080C00BF64462546702274
:1003C0001E7800BF42EA420C8CEA420C0CFB06F796
:1003D00002EA070C25EA02084CEA080C00BF644652
:1003E00004835A888286021D154605F0704606F180
:1003F0000076C5F3130706EB47161A7A3262021D20
:10040000154605F0704606F10076C5F3130706EBB6
:1004100047165A7A726200F12002154605F07046BE
:1004200006F10076C5F3130706EB47161A7932601A
:1004300000F12002154605F0704606F10076C5F37E
:10044000130706EB47169A79726000F120021546F1
:1004500005F0704606F10076C5F3130706EB471664
:100460005A79B26000F12002154605F0704606F197
:100470000076C5F3130706EB4716DA79F260BDE89C
:10048000F0812DE9F0410B46048B25464FF4407274
:10049000002600BF42EA420C8CEA420C0CFB06F735
:1004A00002EA070C25EA02084CEA080C00BF644681
:1004B00025464FF4E0421E7800BF42EA420C8CEA27
:1004C000420C0CFB06F702EA070C25EA02084CEA8C
:1004D000080C00BF644604835A880287021D154633
:1004E00005F0704606F10076C5F3130706EB4716D4
:1004F0001A7AB262021D154605F0704606F10076C2
:10050000C5F3130706EB47165A7AF26200F1200290
:10051000154605F0704606F10076C5F3130706EBA5
:1005200047161A79326100F12002154605F070462F
:1005300006F10076C5F3130706EB47169A79726148
:1005400000F12002154605F0704606F10076C5F36D
:10055000130706EB47165A79B26100F120021546DF
:1005600005F0704606F10076C5F3130706EB471653
:10057000DA79F261BDE8F0812DE9F0410B46848B18
:1005800025460322002600BF42EA420C8CEA420CB8
:100590000CFB06F702EA070C25EA02084CEA080CF5
:1005A00000BF6446254670221E7800BF42EA420C16
:1005B0008CEA420C0CFB06F702EA070C25EA02085B
:1005C0004CEA080C00BF644684835A888287021D67
:1005D000154605F0704606F10076C5F3130706EBE5
:1005E00047161A7A3263021D154605F0704606F169
:1005F0000076C5F3130706EB47165A7A726300F1CB
:100600002002154605F0704606F10076C5F3130783
:1006100006EB47161A79326200F12002154605F002
:10062000704606F10076C5F3130706EB47169A7974
:10063000726200F12002154605F0704606F1007660
:10064000C5F3130706EB47165A79B26200F1200290
:10065000154605F0704606F10076C5F3130706EB64
:100660004716DA79F262BDE8F0812DE9F0410246E1
:100670000B461C46918B0D464FF44070002600BF80
:1006800040EA400C8CEA400C0CFB06F700EA070C31
:1006900025EA00084CEA080C00BF61460D464FF4FD
:1006A000E040267800BF40EA400C8CEA400C0CFB8E
:1006B00006F700EA070C25EA00084CEA080C00BF20
:1006C000614691836088A2F84000101D054605F040
:1006D000704606F10076C5F3130706EB4716207A3D
:1006E000306302F12000054605F0704606F1007601
:1006F000C5F3130706EB47162079306302F120009B
:10070000054605F0704606F10076C5F3130706EBC3
:100710004716A0797063BDE8F08170477047704755
:10072000704700004FF0E021096921F004014FF00B
:10073000E0221161C21700EB5272C2F3C702914B63
:100740001A701946097801EB4102C2EBC1114FF64C
:10075000FF7202EAC1018C4A1180704701468A4A41
:1007600012884A434FF0E0235A6100229A61012225
:100770001A6100BF4FF0E022106900F001021AB1C7
:1007800000F48032002AF5D000224FF0E0231A61F5
:100790009A61704701467B4A12784A434FF0E02342
:1007A0005A6100229A6101221A6100BF4FF0E022D3
:1007B000106900F001021AB100F48032002AF5D06D
:1007C00000224FF0E0231A619A61704770472DE9CB
:1007D000F04F87B004464FF00060002140EA01026C
:1007E0006A4B22EA03056A4A956000BF694800F037
:1007F0000AFE02208DF8180001208DF8190009204A
:100800008DF81A0006A9634800F0D4FE2060052187
:100810005F4802F021FE4FF4E130216800F075F9E5
:1008200001225D495B4801F04EF904215A4D686888
:100830008A05032301279F407F1E07FB02F501273E
:100840009F407F1E0F4007FB02F605EA060720EADD
:10085000050C47EA0C0700BF4F48476000BF00F097
:10086000C5FB4E492068B0FBF1F0C5B22846FFF742
:1008700059FF00F085FA4A494A4802F025FE4AA18C
:10088000009000F04FFB4649019002F01DFE55A17B
:10089000029000F047FB4249039002F015FE8346A8
:1008A0005DA100F03FFB82465FA100F03BFB81466B
:1008B0005CA100F037FB5FA1049000F033FB3849E6
:1008C000059002F001FE80465D4900F02BFB0746D3
:1008D0005CA100F027FB0646314902F0F5FD054614
:1008E0002F4902F0F1FD07B0BDE8F08F10B5584870
:1008F000FFF76DFF10BD2A492A4802F0E5FD0546C5
:1009000054A100F00FFB0446254902F0DDFD00BFB5
:10091000FEE72349234802F0D7FD054650A100F029
:1009200001FB04461E4902F0CFFD00BFFEE71C4953
:100930001C4802F0C9FD05464EA100F0F3FA04463A
:10094000174902F0C1FD00BFFEE71549154802F046
:10095000BBFD05464CA100F0E5FA0446104902F043
:10096000B3FD00BFFEE70E490E4802F0ADFD05469F
:100970004AA100F0D7FA0446094902F0A5FD00BFDC
:10098000FEE700000400002006000020FF0100C078
:1009900000ED00E0001002400000014040420F0066
:1009A000ED340008180000202A2A2A2A2A2A2A2A96
:1009B0002A2A2A2A2A2A2A2A2A2A2A2A2A20506F36
:1009C0006E793237394053435554202A2A2A2A2A2D
:1009D0002A2A2A2A2A2A2A2A2A2A2A2A2A2A2A2A77
:1009E000000000004E4F54453A20544849532050CF
:1009F000524F4A4543542044495341424C45204AB2
:100A000054414720414E44205357442042592044EA
:100A1000454641554C540000436F6D70696C6564E8
:100A20002061743A2000000031363A34333A3538C8
:100A30000000000041707220313620323031370022
:100A40001037000820636F6D706C657465642E004C
:100A5000080000204E4D495F48616E646C6572006D
:100A6000486172644661756C745F48616E646C6560
:100A7000720000004D656D4D616E6167655F486194
:100A80006E646C65720000004275734661756C742B
:100A90005F48616E646C65720000000055736167A9
:100AA000654661756C745F48616E646C65720000C8
:100AB00010B500BFA14A1188202001EA00020AB146
:100AC000012000E00020F8B19D489C4B9B88DAB2E1
:100AD000114600BF00BF0269C3689A4201D10122DA
:100AE00000E0002272B90269521C02618268531C44
:100AF0008360036899548268C368B2FBF3F403FB14
:100B00001422826000BF00BF10BD2DE9FE4F0746D2
:100B10008A4600200346012225210090894800F0E2
:100B20007FFB01228549884800F0CDFF01A84FF4E2
:100B300016510160002101714171817100BF01975F
:100B4000524601A97D4801F067F97C49012201F173
:100B50000C00034603F0704404F10074C3F3130562
:100B600004EB4514E26000BF7849774800F0ABFF22
:100B700008260024012500BFDFF8D0814FF400795A
:100B800046EA040040EA05024946404602F0C8FC35
:100B900000BF00BFA146182500BF46464FF480683D
:100BA000CB462C464BEA04024146304602F0B8FCE4
:100BB000082C02D1C6F8148003E0182C01D1C6F825
:100BC000108000BF00BF5D49012201F10C00034607
:100BD00003F0704404F10074C3F3130504EB4514EF
:100BE000A26000BF202022B98B8923EA000423469B
:100BF00003E08B8943EA000423468B8100BFBDE8F4
:100C0000FE8F10B501460A2917D100BF4B4800BF1F
:100C1000024602F0704303F10073C2F3130403EBC6
:100C20004413DA690AB1012200E00022002AEDD063
:100C300042480D22828000BF00BF00BF3F4800BF76
:100C4000024602F0704303F10073C2F3130403EB96
:100C50004413DA690AB1012200E00022002AEDD033
:100C60003648CAB2828000BF084610BD08B500BF32
:100C700000BF3348006908B9012000E000200028C7
:100C8000F6D12F4800BF016909B9012100E0002118
:100C900079B90169491E016141684A1C42600268D4
:100CA000525C00924168C268B1FBF2F302FB13117F
:100CB000416000BF9DF8000008BD70B504460D46B8
:100CC00023A11E4801F09FF8002070BD30B50446F6
:100CD0000D462046FFF795FF30BD30B50546FFF7BE
:100CE000C5FF0446FFF78DFF30BD01460020704769
:100CF00010B504461AA1114801F085F8002010BD76
:100D000010B5044618A10D4801F07DF8002010BD73
:100D100070B504460D46164617A1084801F073F851
:100D2000002070BD01460020704700F074F810B537
:100D300004462046FFF765FF10BD00000038014063
:100D4000F000002000E100E0001002400008014037
:100D50000A0D20666F70656E2E200A0D00000000DF
:100D60006674656C6C0A0D000A0D2066636C6F7307
:100D700065200A0D00000000667365656B0A0D00B2
:100D80002DE9F84300BF00BF4E480068002840D05E
:100D900000260424012500BF4B4F4FF4807846EA1B
:100DA000040040EA05024146384602F0B9FB00BFA4
:100DB00000BF0020009000BF4248803000990160D1
:100DC00000BF4FF47A70FFF7C9FC4FF4FA70FFF7D9
:100DD000C5FC0120009000BF3A48803000990160B6
:100DE00000BF4FF00008042600BF3D46A701C146E2
:100DF000344649EA04023946284602F091FB082CA1
:100E000001D16F6102E0182C00D12F6100BF00BF3B
:100E100000BFBDE8F8832DA12E4800F083F80446FA
:100E20002D4902F051FB00BFFEE71CB504460E46FB
:100E300015462AA1274800F075F82146009000F0D9
:100E400071F8834629A100F06DF88246314600F022
:100E500069F8814628A100F065F82946019000F064
:100E600089F8804627A100F05DF807461A4902F08C
:100E70002BFBFFF7D0FF1CB504460E46154617A105
:100E8000144800F04FF82146009000F04BF88346DC
:100E900016A100F047F88246314600F043F881463B
:100EA00015A100F03FF82946019000F063F8804654
:100EB00014A100F037F80746074902F005FBFFF7D9
:100EC000AAFF0000200121420008014061626F7208
:100ED0007428290018000020ED3400086173736540
:100EE0007274206661696C65643A20002E20666920
:100EF0006C653A20000000002E206C696E653A2077
:100F0000000000002E00000010B50446204602F04C
:100F1000F9FB204610BD70B505460C46204602F090
:100F2000F1FB70BD70B505460C4605E021782868D8
:100F3000026828469047641C20780028F6D128468D
:100F400070BDF8B506460C46274608250EE0691E1A
:100F50000D46890047FA01F101F00F0000F046F953
:100F600069460090304602F0B6FA00BF002DEED17F
:100F70003046F8BD2DE9FC4781460D462C464FF022
:100F8000000803E008F1010000F0FF080A20B4FBAC
:100F9000F0F4002CF6D1464617E02C46374604E024
:100FA0000A20B4FBF0F4781EC7B2002FF8DC0A2048
:100FB000B4FBF0F100FB11443034E0B2694600901C
:100FC000484602F088FA701EC6B2002EE5DC0A2000
:100FD000B5FBF0F100FB11543034E0B201A90190EF
:100FE000484602F078FA4846BDE8FC8770B51848D4
:100FF00000BF061E03D0304602F05CFA0646154CD0
:1010000000BF0CB100BF00BF134D00BF1DB128468B
:1010100002F04CFA0546114840210E4A10600022A9
:101020000C4B5A609A601A46D16000221A6100BFC8
:1010300018460949086000BF70BD10B5044802F0A9
:1010400039FA044800BF044802F030FA10BD00002D
:1010500018000020F00000201C000020B00000203C
:101060000146C87800028A78104400024A78104489
:1010700000020A78104470470170090A4170090A99
:101080008170090AC1707047014648784FF6FF72B7
:1010900002EA00200A78024490B2704701700912F7
:1010A0004170704710B502460DE0107818B9087805
:1010B00008B9012010BD12F8013B11F8014BA34201
:1010C00001D00020F6E7F0E7024603E00878107050
:1010D000491C521C08780028F8D11070704701464E
:1010E00009E00878612805DB08787A2802DC0878AE
:1010F00020380870491C08780028F2D17047034650
:1011000001E0501C82B2885C10B1885C9842F8D132
:10111000104670470246612A04DB7A2A02DCA2F1FB
:101120002000C2B2612904DB7A2902DCA1F120008F
:10113000C1B2501AC0B2704770B504460D4616468B
:101140008BB10AE020782978884204D02078297869
:10115000401AC0B270BD641C6D1C301EA6F10101A6
:101160008EB2EFD1F6E70BE029782078FFF7D2FFB7
:1011700020B129782078FFF7CDFFEBE7641C6D1CC8
:10118000301EA6F101018EB2EED100BFE2E70146AA
:101190000A4600E0521C10780028FBD1501A80B299
:1011A000704710B504460B4600210AE0994201DB66
:1011B000184610BD605C904201D10846F9E7481C12
:1011C000C1B2F3E703E00270401C4B1E99B2002944
:1011D000F9D1704710B503E00B780370401C491C2F
:1011E000131EA2F10104A2B2F6D110BD014601F016
:1011F0000F00014A105C70472437000806488047FA
:1012000006480047FEE7FEE7FEE7FEE7FEE7FEE7EB
:10121000FEE7FEE7FEE7FEE7CD0700083101000824
:101220002DE9F04305461646079CC6B908464FEA25
:10123000E17C01EBDC6C4FEA6C1CA1EB4C184FF02D
:10124000010C0CFA08FC0F464FEAE17801EBD86874
:101250004FEA681905F1800848F829C015E00846EA
:101260004FEAE17C01EBDC6C4FEA6C1CA1EB4C1803
:101270004FF0010C0CFA08FC0F464FEAE17801EB45
:10128000D8684FEA681845F828C000BFDFF878C072
:10129000DCF80C704FF4E06000BF40EA400C8CEAD0
:1012A000400C07EA0008B8FBFCFC0CF0FF0200BF92
:1012B000D01E05281FD2DFE800F003060D141B0026
:1012C0001807030E19E05807030E04F0010043EA63
:1012D000001312E09807030E04F0030043EA001322
:1012E0000BE0D807030E04F0070043EA001304E004
:1012F0002007030E01E0BDE8F08300BF05F5407054
:10130000435400BFF7E7000000ED00E0F0B50446ED
:101310000022012907D00422891002E0501CC2B229
:1013200049100029FAD163684FF4E06000BF40EA39
:10133000400686EA400606FB02F500EA050623EAB7
:1013400000073E4300BF6660F0BD70B502465468BA
:101350004FF4E06000BF40EA400585EA400504EA3A
:101360000006B6FBF5F5E9B201F0010008B1022074
:1013700000E00120034601F0030103E05806030EDC
:10138000481EC1B20029F9D1184670BDF0B5044617
:101390000022012907D00422891002E0501CC2B2A9
:1013A00049100029FAD163684FF4605000BF40EA49
:1013B000400686EA400606FB02F500EA050623EA37
:1013C00000073E4300BF6660F0BDF0B50446002252
:1013D000012907D00822891002E0501CC2B249102E
:1013E0000029FAD16368F02000BF40EA400686EA8F
:1013F000400606FB02F500EA050623EA00073E4325
:1014000000BF6660F0BD2DE9F04104460020206178
:10141000E060A061E061142060610020A060012014
:10142000014621B9226822EA00031A4603E0226835
:1014300042EA00031A46226000BF00BF00BF2068D6
:10144000022100EA01020AB1012000E00020002888
:10145000F4D0002261684FF0E06000BF40EA400530
:1014600085EA400505FB02F300EA030521EA0006D0
:10147000354300BF656000BF00216268032000BFE4
:1014800040EA400585EA400505FB01F300EA030553
:1014900022EA0006354300BF656000BF0222616892
:1014A00080030125C5EB620300BF40EA400686EADF
:1014B000400606FB03F500EA050621EA00073E4365
:1014C00000BF666000BF01212046FFF71FFF01211A
:1014D0002046FFF75BFF01212046FFF776FF002241
:1014E00061684FF4800000BF40EA400585EA40058E
:1014F00005FB02F300EA030521EA0006354300BFBD
:10150000656000BF00BF204601F0FAFF0028FAD155
:101510004FF40020002121B9226822EA00031A4674
:1015200003E0226842EA00031A46226000BF4FF03F
:101530008070002121B9226822EA00031A4603E0E4
:10154000226842EA00031A46226000BF4FF480304E
:10155000002121B9226822EA00031A4603E022682A
:1015600042EA00031A46226000BF4FF480200021A7
:1015700021B9226822EA00031A4603E0226842EAFF
:1015800000031A46226000BF022261684FF4701007
:10159000931E00BF40EA400686EA400606FB03F5BC
:1015A00000EA050621EA00073E4300BF666000BF6F
:1015B000BDE8F08103B58FB0F7480E9014210F9865
:1015C00041610F9880680D9000210F9881600F98FD
:1015D000006800F001000C9001200A900B900B981D
:1015E00040B90F98006808900A990991DDE908014F
:1015F000884308E00F98006808900A990991DDE98E
:101600000801084300BF0F99086000BF00BF00BF7A
:101610000F9800680221CDE90A01DDE90A010840BE
:1016200008B1012000E000200028F0D000200B903D
:101630000F9840680890032009900B980A9008982A
:101640000590099806900490049840EA400181EAC8
:1016500040010A9848430790DDE9060100EA0102CB
:10166000DDE905018843104300BF0F99486000BFC2
:10167000C949CA4801F086FF00BF0F9801F040FF3A
:101680000028FAD11098007800286FD001286ED079
:1016900002286DD110984078012805D110988078E3
:1016A000BD4948430E900EE010984078032805D1BC
:1016B00010988078BA4948430E9004E010988078DA
:1016C000B74948430E90B7490E98884202D9B248AC
:1016D0000E90F1E14FF08070099000200A900A9876
:1016E00040B90F980068079009990891DDE9070152
:1016F000884308E00F980068079009990891DDE990
:101700000701084300BF0F99086000BF1098407898
:1017100000284BD04FF48020099000200A900A98AE
:1017200040B90F980068079009990891DDE9070111
:10173000884308E00F980068079009990891DDE94F
:101740000701084300BF0F99086000BF4FF48030C5
:10175000099001200A900A9858B90F9800680790DC
:1017600009990891DDE9070188430BE0A2E103E153
:10177000A1E10F980068079009990891DDE9070138
:10178000084300BF0F99086000BF00BF00BF0F985B
:1017900000684FF40031CDE90901DDE90901084095
:1017A00008B1012000E000200028EFD00F98FFF7DB
:1017B000CCFD0B900E990B98B1FBF0F07A49884262
:1017C00014D90BE00B984006000E0B900B990E9865
:1017D000B0FBF1F07449884200D802E00B98102861
:1017E000F0DD00BF0B990F98FFF790FD109840783F
:1017F0000990109880780A90099808900F9840688E
:1018000005904FF440300690089807900598029094
:10181000069803900190019840EA400181EA400156
:10182000079848430490DDE9030100EA0102DDE97D
:1018300002018843104300BF0F99486000BF0A9817
:1018400008900F98406805904FF470100690089823
:10185000801E0790059802900698039001900198C9
:1018600040EA400181EA4000079948430490DDE9DD
:10187000030100EA0102DDE902018843104300BFD1
:101880000F99486000BF00BF4FF0807009900120A1
:101890000A900A9840B90F98006807900999089132
:1018A000DDE90701884308E00F980068079009996F
:1018B0000891DDE90701084300BF0F99086000BFE8
:1018C00000BF00BF0F9800684FF00071CDE909011B
:1018D000DDE90901084008B1012000E000200028EE
:1018E000EFD02E480E9901F04DFE02200A900F987D
:1018F00040680790032008900A9809900798049080
:10190000089805900390039840EA400181EA40015D
:10191000099848430690DDE9050100EA0102DDE986
:1019200004018843104300BF0F99486000BF00BF07
:101930000F9801F0E5FD0228FAD10C98D8B90120E2
:10194000099000200A900A9840B90F980068079003
:1019500009990891DDE90701884308E00F980068BC
:10196000079009990891DDE90701084300BF0F9925
:10197000086000BF00BF9FE04FF480200A90002065
:101980000B900B9890B90F98006808900A990991EC
:10199000DDE90801884312E000127A0000200240CD
:1019A00000093D0000A24A04005125020F9800687A
:1019B00008900A990991DDE90801084300BF0F99D1
:1019C000086000BF4FF480300A9001200B900B9804
:1019D00040B90F98006808900A990991DDE908015B
:1019E000884308E00F98006808900A990991DDE99A
:1019F0000801084300BF0F99086000BF00BF00BF87
:101A00000F9800684FF40031CDE90A01DDE90A01C1
:101A1000084008B1012000E000200028EFD0D8499C
:101A2000D84801F0AFFD01200B900F984068089056
:101A3000032009900B980A90089805900998069041
:101A40000490049840EA400181EA40010A98484322
:101A50000790DDE9060100EA0102DDE9050188439E
:101A6000104300BF0F99486000BF00BF0F9801F0FE
:101A700047FD0128FAD10C98D8B901200A9000201E
:101A80000B900B9840B90F98006808900A9909913B
:101A9000DDE90801884308E00F98006808900A997A
:101AA0000991DDE90801084300BF0F99086000BFF4
:101AB00000BF01E000E000BF00BF0F990D988860F3
:101AC0000E9811B000BD2DE9F04107460C461546B1
:101AD0000026C4F30900002841D1A012A0F580100F
:101AE000403816283BD2DFE800F0383A363432303E
:101AF0002E2C292623201D1A17143A3A3A110E0BC0
:101B00004FF400162BE04FF4801628E04FF4002627
:101B100025E04FF4004622E04FF480461FE04FF4EA
:101B200000561CE04FF4805619E04FF4006616E0B2
:101B30004FF4806613E04FF4007610E04FF48076A7
:101B40000DE080260BE0402609E0202607E0102665
:101B500005E0082603E0042601E0012600BF00BFDF
:101B60003EB1314607F1180001F04AFC0560BDE8BE
:101B7000F081C4F3090000284FD1A012A0F5801015
:101B80001E284AD2DFE800F0474543413F3D3B393C
:101B9000364949334949302D492A2724211E1B49FA
:101BA00049184915120F4FF0005636E04FF0805695
:101BB00033E04FF0006630E04FF000762DE04FF458
:101BC00080062AE04FF4001627E04FF4801624E048
:101BD0004FF4002621E04FF480261EE04FF400363B
:101BE0001BE04FF4004618E04FF4804615E04FF438
:101BF000006612E04FF480760FE080260DE040266C
:101C00000BE0202609E0102607E0082605E0042660
:101C100003E0022601E0012600BF00BF26B9A5228D
:101C200059A161A0FFF727F9314607F11C0001F027
:101C3000E7FB056000BF9AE72DE9F05F81468A4621
:101C40005546D9F8044021460C2000BF40EA400226
:101C500082EA400201EA0003B3FBF2F2D0B220B103
:101C6000012805D0022826D105E04548286028E053
:101C70004348286025E04FF4701000BF40EA40025E
:101C800082EA400204EA0003B3FBF2F211460F2994
:101C900001D1102100E0891C04F4803040B104F42B
:101CA000003008B1434800E035484843286001E06F
:101CB0000020286005E0342233A13FA0FFF7DBF8C5
:101CC00000BF00BFF02000BF40EA400181EA4001B0
:101CD00004EA0002B2FBF1F1CEB206F0080030B126
:101CE00006F00701491C2868C840686001E02868C0
:101CF00068604FF4E06000BF40EA400181EA4001C3
:101D000004EA0002B2FBF1F1CFB207F0040030B1F7
:101D100007F00301491C6868C840A86001E06868D2
:101D2000A8604FF4605000BF40EA400181EA4001E2
:101D300004EA0002B2FBF1F101F0FF0808F0040030
:101D400030B108F00301491C6868C840E86001E050
:101D50006868E8604FF4404000BF40EA400181EA13
:101D6000400104EA0002B2FBF1F101F0FF0B0BF1BC
:101D700001004000E968B1FBF0F02861BDE8F09F88
:101D800000127A00002002402E2E5C63707066778D
:101D90006C69625C73746D3332663130785F5F52A8
:101DA00043432E63707000006269745F6D61736BF2
:101DB0000000000000093D003000000030B50A4678
:101DC00016E000BF01460846034603F0704404F1E4
:101DD0000074C3F3130504EB4514E3690BB101234D
:101DE00000E00023002BEDD01178818000BF521C51
:101DF00011780029E5D130BD70B505460C4628465E
:101E0000A047284670BD30B504460D4629462046F9
:101E1000FFF7D4FF204630BDF0B50B68B2FBF3F4FA
:101E2000048100BF00F10C031C4604F0704505F16D
:101E30000075C4F3130605EB46158B7903F0010317
:101E40006B6200F10C031C4604F0704505F100754F
:101E5000C4F3130605EB46158B795B10AB620C7966
:101E600000F10C031D4605F0704606F10076C5F33F
:101E7000130706EB4716346300BF012400BF00BF01
:101E800005F0704606F10076C5F3130706EB47161A
:101E9000746300BFF0BD10B5044602A12046FFF7F1
:101EA000B2FF10BD0D0A00002DE9F0410122FB49EF
:101EB000FB48FFF708FE0122FA49F948FFF703FE45
:101EC0000122F949F648FFF7FEFD0420F64C61684F
:101ED0008205032301269E40761E06FB02F401269E
:101EE0009E40761E064006FB02F504EA050621EA3E
:101EF00004073E4300BFEC494E6000BF0026344655
:101F0000012500BFE74F4FF4007846EA040040EA9D
:101F100005024146384601F003FB00BF00BF00BF89
:101F200000BF68023946086100BF00BF00252C468B
:101F3000012600BF00BF4FF4807845EA040040EA64
:101F400006024146384601F0EBFA00BF00BF00BF71
:101F500000BF30023946086100BF00BF002425469B
:101F600000BF00BF4FF0800844EA050040EA0602C7
:101F70004146384601F0D4FA00BF00BF00BF8020C0
:101F80003946086100BF00BF00BF00BF4FF04008E6
:101F900044EA050040EA06024146384601F0C0FA2C
:101FA00000BF00BF00BF40203946086100BFBB4CE6
:101FB0004FF6FF75002637464FF0010846EA070046
:101FC00040EA08022946204601F0AAFA00BF284646
:101FD0002146C86000BF3446012500BFB14F4FF411
:101FE000806846EA040040EA05024146384601F0AE
:101FF00097FA00BF00BFBDE8F0812DE9F04104462B
:10200000FFF752FF00BF00BF00BF4FF40070A549AB
:10201000486100BF00BF00BF3220FEF79FFB0121D7
:10202000002001F0A9F93220FEF798FB002500BF3F
:1020300000BF00BF4FF480709A49486100BF00BFE5
:10204000284601F0B7F900BF00BF4FF480709549F2
:10205000086100BF00BF00BF01F040F9064600BFA5
:10206000266092A19448FEF75DFF07462168FEF7BF
:1020700081FF0546914E2846B04700BF49F2253101
:102080002068884203D0C91C206888427ED1102174
:10209000E72001F071F90121002001F06DF94FF402
:1020A0008071012001F068F94FF4E061022001F035
:1020B00063F941F23001032001F05EF900210420B0
:1020C00001F05AF940F20721082001F055F90021EA
:1020D000092001F051F900210A2001F04DF90121F8
:1020E0000C2001F049F900210D2001F045F90021F3
:1020F0000F2001F041F90021102001F03DF90721E6
:10210000112001F039F90021122001F035F90021E8
:10211000132001F031F93220FEF720FB41F29051FB
:10212000102001F029F940F22721112001F024F9B3
:102130003220FEF713FB9C21122001F01DF9322002
:10214000FEF70CFB4FF4C851132001F015F92321C1
:10215000292001F011F90E212B2001F00DF9322078
:10216000FEF7FCFA0021202001F006F940F23F11B1
:10217000212001F001F93220FEF7F0FA072130208A
:1021800001F0FAF840F20771312000E098E001F028
:10219000F3F80621322001F0EFF840F20471352007
:1021A00001F0EAF841F60471362001F0E5F8042167
:1021B000372001F0E1F80021382001F0DDF840F28D
:1021C0000671392001F0D8F840F201713C2001F08D
:1021D000D3F80F213D2001F0CFF83220FEF7BEFAF0
:1021E0000021502001F0C8F8EF21512001F0C4F87F
:1021F0000021522001F0C0F840F23F11532001F0BD
:10220000BBF84FF42741602001F0B6F801216120AE
:1022100001F0B2F800216A2001F0AEF80021802020
:1022200001F0AAF80021812001F0A6F80021822007
:1022300001F0A2F80021832001F09EF80021842003
:1022400001F09AF80021852001F096F810219020E5
:1022500001F092F80021922001F08EF803219320E2
:1022600001F08AF84FF48871952001F085F800217B
:10227000972001F081F80021982001F07DF840F2CC
:102280003311072001F078F80021202001F074F8C4
:1022900040F23F11212001F06FF8C5E0000C014031
:1022A000001002400010014000000140204C434457
:1022B0002049443A2000000018000020ED340008B6
:1022C00049F220312068884203D02068B0F5134FCE
:1022D000E3D10021084601F04FF84FF4807101204E
:1022E00001F04AF84FF4E061022001F045F841F2B4
:1022F0003001032001F040F80021042001F03CF8F7
:1023000040F20221082001F037F80021092001F0F5
:1023100033F800210A2001F02FF801210C2001F0F0
:102320002BF800210D2001F027F800210F2001F0EB
:1023300023F83220FEF712FA40F20111072001F0D3
:102340001BF83220FEF70AFA4FF48651102001F0F4
:1023500013F80721112001F00FF84FF488711220B3
:1023600001F00AF84FF43061132001F005F8002164
:10237000292001F001F844F210012B2000F0FCFFAD
:102380000021502000F0F8FFEF21512000F0F4FF71
:102390000021522000F0F0FF40F23F11532000F0E6
:1023A000EBFF4FF41C51602000F0E6FF012161209B
:1023B00000F0E2FF00216A2000F0DEFF0021802013
:1023C00000F0DAFF0021812000F0D6FF00218220FA
:1023D00000F0D2FF0021832000F0CEFF00218420F6
:1023E00000F0CAFF0021852000F0C6FF10219020D8
:1023F00000F0C2FF0021922000F0BEFF01219320D7
:1024000000F0BAFF4FF48871952000F0B5FF00216D
:10241000972000F0B1FF0021982000F0ADFF40F2BE
:102420007311072000F0A8FF00BF00BF4FF48060C9
:10243000FE49086100BF00BFBDE8F08110B502464B
:10244000072040F2731100BF00BF00BF4FF480733C
:10245000F64C636100BF00BF00BF00BFF44BD86003
:1024600000BF00BF8023636100BF00BF236100BFC6
:1024700000BF00BF00BF5B00236100BF00BF00BF03
:1024800000BF00BFEA4BD96000BF00BF802363617B
:1024900000BF00BF236100BF00BF00BF10BD10B56B
:1024A00002460720002100BF00BF00BF4FF4807329
:1024B000DE4C636100BF00BF00BF00BFDC4BD860D3
:1024C00000BF00BF8023636100BF00BF236100BF66
:1024D00000BF00BF00BF5B00236100BF00BF00BFA3
:1024E00000BF00BFD24BD96000BF00BF8023636133
:1024F00000BF00BF236100BF00BF00BF10BD30B5EB
:102500000346202000BF00BF00BFC400C74D6C6160
:1025100000BF00BF00BF00BFC54CE06000BF00BFF0
:1025200080246C6100BF00BF2C6100BF00BF00BFF2
:1025300000BFC4002C6100BF00BF00BF00BF00BFD0
:10254000BB4CE16000BF00BF80246C6100BF00BFD6
:102550002C6100BF00BF00BF212000BF00BF00BF33
:1025600064006C6100BF00BF00BF00BFB04CE06002
:1025700000BF00BF80246C6100BF00BF2C6100BFA2
:1025800000BF00BF00BF64002C6100BF00BF00BFE0
:1025900000BF00BFA64CE26000BF00BF80246C619A
:1025A00000BF00BF2C6100BF00BF00BF222000BFE2
:1025B00000BF64006C6100BF00BF00BF00BF9C4C47
:1025C000E06000BF00BF80246C6100BF00BF2C61D1
:1025D00000BF00BF00BF00BF64002C6100BF00BF90
:1025E00000BF30BD2DE9F04180460C4615461E4621
:1025F000069F502000BF00BF00BF4FF480718B4A80
:10260000516100BF00BF00BF00BF8949C86000BF63
:1026100000BF8021516100BF00BF116100BF00BF3A
:1026200000BF00BF4900116100BF00BF00BF00BF75
:1026300000BF7F49CC6000BF00BF8021516100BF57
:1026400000BF116100BF00BF00BF512000BF00BF2D
:1026500000BF4900516100BF00BF00BF00BF744907
:10266000C86000BF00BF8021516100BF00BF116181
:1026700000BF00BF00BF00BF4900116100BF00BF25
:1026800000BF00BF00BF6A49CE6000BF00BF80210D
:10269000516100BF00BF116100BF00BF00BF5220E9
:1026A00000BF00BF00BF4900516100BF00BF00BFB5
:1026B00000BF5F49C86000BF00BF8021516100BFFB
:1026C00000BF116100BF00BF00BF00BF4900116122
:1026D00000BF00BF00BF00BF00BF5549CD6000BFB5
:1026E00000BF8021516100BF00BF116100BF00BF6A
:1026F00000BF532000BF00BF00BF4900516100BFB1
:1027000000BF00BF00BF4A49C86000BF00BF8021B2
:10271000516100BF00BF116100BF00BF00BF00BF1B
:102720004900116100BF00BF00BF00BF00BF4049AA
:10273000CF6000BF00BF8021516100BF00BF1161A9
:1027400000BF00BF00BF2A4621464046FFF7D7FE24
:10275000BDE8F0817FB504460D461646324629464F
:102760002046FFF7CCFEBDF80C0000BF3049C86022
:1027700000BF00BF80212D4A516100BF00BF116121
:1027800000BF00BF7FBDF8B50346202000BF00BFDB
:1027900000BFC400254D6C6100BF00BF00BF00BF7B
:1027A000234CE06000BF00BF80246C6100BF00BF0D
:1027B0002C6100BF00BF00BF00BFC4002C6100BF80
:1027C00000BF00BF00BF00BF194CE16000BF00BFE9
:1027D00080246C6100BF00BF2C6100BF00BF00BF40
:1027E000212000BF00BF00BF64006C6100BF00BFBC
:1027F00000BF00BF0E4CE06000BF00BF80246C61D2
:1028000000BF00BF2C6100BF00BF00BF00BF64005D
:102810002C6100BF00BF00BF00BF00BF044CE260DE
:1028200000BF00BF80246C6100BF03E000100140C6
:10283000000C014000BF2C6100BF00BF00BF222080
:1028400000BF00BF64006C6100BF00BF00BF00BFDD
:10285000F44CE06000BF00BF80246C6100BF00BF8B
:102860002C6100BF00BF00BF00BF64002C6100BF2F
:1028700000BF00BF00BF00BF4FF6FF70E94C2061F2
:1028800000BF0024182044EA00064FF0113706FB71
:1028900007F5E44E35607560082804D14FF6FF76E1
:1028A000E04F7E6105E0182803D14FF6FF76DD4F3B
:1028B0003E6100BF00BF00BF4020DB4C606100BF35
:1028C0000120009007E000BF4020D74C606100BFAE
:1028D0000098401E009000980028F4D100BFD14815
:1028E000806800BF00BF4020CF4C206100BF00BF08
:1028F00000200446012540EA04072F434FF0113C15
:1029000007FB0CF6C74F3E607E6000BF00BF00BFF4
:10291000F8BD2DE9F04180460C4615461E46069F3F
:10292000502000BF00BF00BF4FF48071BE4A51610C
:1029300000BF00BF00BF00BFBA49C86000BF00BFF2
:102940008021516100BF00BF116100BF00BF00BF07
:1029500000BF4900116100BF00BF00BF00BF00BF42
:10296000B049CC6000BF00BF8021516100BF00BFF3
:10297000116100BF00BF00BF512000BF00BF00BFFA
:102980004900516100BF00BF00BF00BFA549C8603A
:1029900000BF00BF8021516100BF00BF116100BFB7
:1029A00000BF00BF00BF4900116100BF00BF00BFF2
:1029B00000BF00BF9B49CE6000BF00BF80215161B6
:1029C00000BF00BF116100BF00BF00BF522000BFA9
:1029D00000BF00BF4900516100BF00BF00BF00BF82
:1029E0009049C86000BF00BF8021516100BF00BF97
:1029F000116100BF00BF00BF00BF4900116100BFEF
:102A000000BF00BF00BF00BF8649CD6000BF00BF50
:102A10008021516100BF00BF116100BF00BF00BF36
:102A2000532000BF00BF00BF4900516100BF00BF7D
:102A300000BF00BF7B49C86000BF00BF802151615B
:102A400000BF00BF116100BF00BF00BF00BF490051
:102A5000116100BF00BF00BF00BF00BF7149CF6060
:102A600000BF00BF8021516100BF00BF116100BFE6
:102A700000BF00BF2A4621464046FFF784FEBDE85E
:102A8000F0812DE9FC4705460E4617463A46314689
:102A90002846FFF778FE00BF00BF4FF6FF70614980
:102AA000086100BF0021182041EA00034FF0113CEB
:102AB00003FB0CF25B4B1A605A60082806D14FF6F4
:102AC000FF73DFF860C1CCF8143007E0182805D197
:102AD0004FF6FF73DFF84CC1CCF8103000BF00BFD9
:102AE00000BF40205049486100BF0120009007E02E
:102AF00000BF40204C49486100BF0098401E009034
:102B000000980028F4D100BF4648806800BF00BF8D
:102B100040204549086100BF00BF00200146012256
:102B200040EA010C4CEA020C4FF011380CFB08F3A0
:102B3000DFF8F0C0CCF80030CCF8043000BF00BFA4
:102B400000BF00BF00BF4FF6FF716246116100BFBA
:102B50000023182143EA010C0CFB08F2DFF8C4C083
:102B6000CCF80020CCF80420082906D14FF6FF7CD1
:102B7000DFF8B080C8F814C007E0182905D14FF677
:102B8000FF7CDFF8A080C8F810C000BF00BF00BF06
:102B90004021254A516100BF0121009107E000BF9B
:102BA0004021214A516100BF0099491E00910099BE
:102BB0000029F4D100BF1B49896888B200BF4021B9
:102BC000194A116100BF00BF00210A46012341EAF2
:102BD000020848EA03084FF0113908FB09FCDFF846
:102BE0004480C8F800C0C8F804C000BF00BF00BFE0
:102BF000044601AA204600F01F09C0F345184FEA19
:102C0000D02C4FEAC92A4AEA481A4AEA0C03194664
:102C100000BF118000BF10880090BDF8001008466A
:102C2000BDE8FC87000C0140001001402DE9F8438D
:102C300080460C4615461E46089F33462A462146C6
:102C400040460097FFF7CEFC00BFBDF8240000BF50
:102C5000FE49C86000BF00BF00BF311B491C7A1B82
:102C6000521C01FB02F00CE000BF00BF00BF80213E
:102C7000F74A516100BF00BF116100BF00BF00BF34
:102C8000401E0028F0D140F23F10EF2300221146F1
:102C900000904046FFF7A6FCBDE8F8831CB504464B
:102CA0006089ADF8040040F23F10EF230022114686
:102CB00000902046FFF7BAFF1CBD2DE9F04F87B00A
:102CC00082460C4615461E46109F781B002801DAE6
:102CD000414200E001460A46301B002801DA414229
:102CE00000E001468A4201DD012000E0002006905C
:102CF000069850B100BF20462C46054600BF00BFD5
:102D000030463E46074600BF00BFB4420ADD00BF62
:102D100020463446064600BF00BF28463D460746CB
:102D200000BF00BFA6EB040B781B002801DA41426C
:102D300000E001460591059948000490CBF1000898
:102D4000BD4201DA012001E04FF0FF300390A146BF
:102D5000029526E0069858B1BAF80C001FFA89F2DD
:102D60000190029881B25046019BFFF7F3FC0AE004
:102D7000BAF80C000190029882B21FFA89F150460D
:102D8000019BFFF7E7FC04988044B8F1000F06DBD5
:102D9000DDE9020108440290022000FB1B8809F1D2
:102DA0000109B145D6DD07B0BDE8F08F38B505465D
:102DB0000C4660680090284694E80E00FFF77DFFFF
:102DC000E0680090D4E9003219462846FFF775FF05
:102DD000E06800902846D4E902322168FFF76DFFD1
:102DE000E0680090D4E9012319462846FFF765FF03
:102DF00038BD2DE9F84F82460E4617469846052005
:102E0000A0EB8809BAF80C000090002445464CE07D
:102E1000381B82B2701981B25046009BFFF79AFCB2
:102E2000781982B2301B81B25046009BFFF792FCAA
:102E3000381B82B2701B81B25046009BFFF78AFCA0
:102E4000781B82B2301B81B25046009BFFF782FC98
:102E5000381982B2701981B25046009BFFF77AFC94
:102E6000781B82B2301981B25046009BFFF772FC8A
:102E7000781982B2301981B25046009BFFF76AFC84
:102E8000381982B2701B81B25046009BFFF762FC7A
:102E9000B9F1000F03DAE000C01C814404E0601BBC
:102EA000C000143081446D1E641CAC42B0DDBDE82E
:102EB000F88F70B505460C4624B9552265A16AA065
:102EC000FDF7D9FF6C6070BD2DE9FF4F85B004465A
:102ED000606801684A68089990478146B9F1000F17
:102EE0000CD162A16B48FEF71DF88346DFF8A8817C
:102EF0005846C04700BF09B0BDE8F08F6068016860
:102F000003AA0B6808999847049907980844401E3B
:102F100080B20090039906980844401E83B2204670
:102F2000DDE90612FFF75EFB0398C11700EB517154
:102F3000CE100398C11700EB5171C910A0EBC10767
:102F40000FB1012000E0002000EB060A207A0028E3
:102F50007AD1A08902906089019000BFBDF8040079
:102F600000BF3A49C86000BF00BF00BF0020ABE00F
:102F7000002240E00AFB002119F80150082337E045
:102F800005F0010111B300BFBDF8081000BFDFF864
:102F9000BCC0CCF80C1000BF00BF4FF0800CDFF8B5
:102FA000B080C8F814C000BF00BFC8F810C000BF90
:102FB00000BF00BF00BFBDF8041000BFDFF88CC029
:102FC000CCF80C1000BF00BF00BF0FE000BF00BF77
:102FD00000BF8021DFF878C0CCF8141000BF00BF1C
:102FE000CCF8101000BF00BF00BF00BF6D105B1E0B
:102FF000002BC5D1521CB242BCDB07B963E00AFB0F
:10300000006119F801503A465AE005F00101E1B1BA
:1030100000BFBDF8081000BF0C4BD96000BF00BF57
:103020008023DFF82CC0CCF8143000BF00BFCCF8F0
:10303000103000BF00BF00BF00BFBDF8041000BFCC
:10304000024BD96000BF29E043E02AE0000C0140B8
:10305000001001402E2E5C4C43445C6C63645F673F
:1030600075692E6370700000700000004C43445F6F
:103070004755493A3A4472617743686172202D3E60
:1030800020696E76616C6964206368617261637443
:103090006572000018000020ED34000800BF00BF7A
:1030A0000CE000BF00BF00BF80213F4B596100BF53
:1030B00000BF196100BF00BF00BF00BF6D10521EEE
:1030C000002AA2D100BF401C049981423FF750AFB3
:1030D00052E0207A01284FD1A08902904FF00008D9
:1030E00046E04FF0000B20E00AFB08B019F8005052
:1030F0000820019014E005F0010068B107984044F1
:1031000082B20823069803FB0B030198184481B28E
:103110002046029BFFF71EFB6D100198401E019098
:1031200001980028E7D10BF1010BB345DCDB07B9AF
:103130001CE00AFB086019F80050BB4612E005F0DD
:10314000010060B10798404482B20823069803FB4F
:103150000600584481B22046029BFFF7FBFA6D102F
:10316000ABF1010BBBF1000FE9D100BF08F1010881
:1031700004984045B5DC00BF40F23F10EF23002229
:10318000114600902046FFF72DFA00BFB3E607482E
:10319000014600BF08460A3100BFA1F10A00891CA0
:1031A00000BFA1F10C007047001001400401002095
:1031B00013487047704770B504462046FFF7FAFF82
:1031C000054600F02AFA70BD0823136010235360EF
:1031D0007047024620395F2901D300207047094813
:1031E00000EB0110FAE710B50548074907490160EF
:1031F00000BF0446064A074900F01EF810BD000053
:103200002000002054370008643D00084C3D0008B1
:10321000000000080D36000870B5054C054D03E0B0
:10322000206820448047241DAC42F9D170BD0000C5
:10323000F03D0008003E00082DE9F0410746154624
:103240000E46102000F028FA04000AD06760C4E996
:10325000026500F009F80168216004600020BDE803
:10326000F0810120FBE700000048704724000020A7
:1032700070472DE9F0410646FFF7F6FF80464546C8
:1032800013E016B1E068B0420ED120682860D4E99E
:103290000101D8F800708847204600F0D5F9D8F829
:1032A0000000B842EBD100E025462C68002CE8D1A4
:1032B000BDE8F081064C074D06E0E06840F00103F0
:1032C00094E8070098471034AC42F6D3FCF734FF7B
:1032D000D03D0008F03D00087047000070B500BF09
:1032E0004FF6FF702249086100BF0021182041EA13
:1032F00000034FF0113503FB05F21D4B1A605A60B5
:10330000082804D14FF6FF73194D6B6105E01828AA
:1033100003D14FF6FF73164D2B6100BF00BF022093
:10332000FDF738FA00BF40201249486100BF052070
:10333000FDF730FA00BF0E48806884B200BF40201D
:103340000C49086100BF0220FDF724FA00BF0020ED
:103350000146012240EA010515434FF0113605FBF5
:1033600006F3034D2B606B6000BF00BF204670BDAD
:10337000000C01400010014070B504460D4600BF2E
:1033800000BF00BF4FF480700949486100BF00BF13
:10339000204600F00FF800BF00BF4FF480700449D2
:1033A000086100BF00BF00BF284600F003F870BDF1
:1033B0000010014010B5044600BF0B48C46000BFB8
:1033C0000220FDF7E7F900BF80200849486100BFEF
:1033D0000520FDF7DFF900BF80200449086100BF28
:1033E0000220FDF7D7F910BD000C0140001001408C
:1033F00010B50162426383634FF0C244C46310BDE1
:103400002DE9F04105460C46002724B93D220F491D
:103410000F48FDF730FD01E064087F1C04F0010057
:103420000028F9D0601E20B13F2208490948FDF765
:1034300022FD2E4606F0704000F10070C6F3130125
:1034400000EB411000EB8700BDE8F0819D3D0008D6
:10345000943D0008BD3D00082DE9F04105460B46AE
:10346000EC684FF4E06100BF41EA410C8CEA410C8A
:103470000CFB03F701EA070C24EA01084CEA0802F6
:1034800000BF094840F2FA5600BF40EA400484EA0F
:10349000400404FB06F100EA010422EA00073C4371
:1034A00000BFEC60BDE8F0810000FFFF00BF00BF7F
:1034B00000BF70470249016000BF024901607047C8
:1034C0008C3D00087C3D000870B505460C4628463A
:1034D000A047284670BD70B504460D46297820687F
:1034E000026820469047204670BD000010B5044693
:1034F00002492046FDF716FD10BD0000CD3D000835
:1035000010B501464A680C2000BF40EA400383EA38
:10351000400302EA0004B4FBF3F3D8B210BD00008C
:1035200070B51346CCB29CB101F00F04144D35F8C0
:103530001440C1F3031635F8165044EA05420468F6
:10354000C2EB0215AC4303F00F0555432C43046056
:1035500001F47F449CB10A4CC1F3032534F81540B3
:103560000D0B074E36F8155044EA05424468C2EB8D
:103570000215AC4303F00F0555432C43446070BD66
:1035800034370008F0B502460B461E48834211D876
:1035900011680720002400BF40EA400686EA400682
:1035A00006FB04F500EA050621EA00073E4300BFDA
:1035B000166025E01448834211D8116807200124C1
:1035C00000BF40EA400686EA400606FB04F500EA32
:1035D000050621EA00073E4300BF166010E01168AF
:1035E0000720022400BF40EA400686EA400606FBA8
:1035F00004F500EA050621EA00073E4300BF166015
:10360000F0BD000000366E01006CDC0200B5014622
:103610000846FFF7CFFD014600BD10B500F014F8D5
:1036200010BD0020FFF724BE02E008C8121F08C129
:10363000002AFAD170477047002001E001C1121F33
:10364000002AFBD17047000010B5002821D0114B93
:103650000022001F196803E0814203D80A46496826
:103660000029F9D152B11368841A9C4204D1006830
:1036700018441060104602E0506000E0186039B154
:1036800002680B1A934203D10B681A44026049681E
:10369000416010BD28000020F0B50B30154D20F022
:1036A00007010024144A0FE003688B420BD38B42BE
:1036B00005D95E1A43184768C3E9006700E043680C
:1036C000136002C004E0021D10680028ECD12046FF
:1036D000002802D1286808B10020F0BD064A07483A
:1036E0001060074A121A22F00702C0E900240120E4
:1036F0002860D7E72C000020280000201C010020B3
:10370000180300200149FDF7E1BA00000C00002079
:10371000766F69642053797374656D3A3A496E69BE
:103720007428290030313233343536373839414244
:103730004344454600000100100011000001010152
:1037400010011101001001101010111000110111D1
:103750001011111100000000000000000000000026
:103760000000000000000008080808080808000021
:103770001818000000486C2412000000000000002F
:10378000000000000000002424247F1212127F1287
:10379000121200000000081C2A2A0A0C1828282AE5
:1037A0002A1C080800000022251515152A58545413
:1037B000542200000000000C1212120A7625291172
:1037C000916E0000000606040300000000000000E7
:1037D0000000000000402010100808080808081029
:1037E00010204000000204080810101010101008EB
:1037F000080402000000000008086B1C1C6B08088D
:103800000000000000000000080808087F08080801
:1038100008000000000000000000000000000000A0
:10382000060604030000000000000000FE00000087
:103830000000000000000000000000000000000088
:1038400006060000000080404020201010080804F8
:103850000402020000000018244242424242424256
:1038600024180000000000080E08080808080808CE
:10387000083E00000000003C4242422020100804A4
:10388000427E00000000003C42422018204040429E
:10389000221C0000000000203028242422227E2048
:1038A000207800000000007E0202021A26404042FA
:1038B000221C0000000000382402021A2642424264
:1038C000241800000000007E2222101008080808BA
:1038D000080800000000003C4242422418244242F2
:1038E000423C00000000001824424242645840401C
:1038F000241C000000000000000018180000000058
:10390000181800000000000000000008000000007F
:1039100000080804000000402010080402040810F9
:10392000204000000000000000007F0000007F0039
:1039300000000000000000020408102040201008D1
:10394000040200000000003C4242464020101000EB
:10395000181800000000001C225A555555552D42DC
:10396000221C00000000000808181414243C224205
:1039700042E700000000001F2222221E2242424293
:10398000221F00000000007C4242010101010142AF
:10399000221C00000000001F2242424242424242DA
:1039A000221F00000000003F4212121E12120242AB
:1039B000423F00000000003F4212121E121202029B
:1039C000020700000000003C2222010101712122B7
:1039D000221C0000000000E7424242427E42424276
:1039E00042E700000000003E080808080808080830
:1039F000083E00000000007C101010101010101085
:103A00001010110F0000007722120A0E0A12122263
:103A100022770000000000070202020202020202F6
:103A2000427F000000000077363636362A2A2A2ADE
:103A30002A6B0000000000E346464A4A5252526296
:103A4000624700000000001C2241414141414141C8
:103A5000221C00000000003F424242423E0202029D
:103A6000020700000000001C2241414141414D532A
:103A7000321C60000000003F4242423E12122222ED
:103A800042C700000000007C42420204182040426D
:103A9000423E00000000007F4908080808080808A6
:103AA000081C0000000000E74242424242424242FB
:103AB000423C0000000000E7424222242414141873
:103AC000080800000000006B494949495555362255
:103AD00022220000000000E74224241818182424A1
:103AE00042E70000000000772222141408080808AA
:103AF000081C00000000007E212010100804044271
:103B0000423F00000078080808080808080808086C
:103B100008087800000002020404080808101020B9
:103B200020204040001E1010101010101010101017
:103B300010101E00003844000000000000000000CB
:103B40000000000000000000000000000000000075
:103B5000000000FF00060800000000000000000058
:103B600000000000000000000000003C42784442D9
:103B700042FC0000000000030202021A26424242F8
:103B8000261A000000000000000000384402020273
:103B90004438000000000060404040784442424207
:103BA00064D80000000000000000003C427E0202D9
:103BB000423C0000000000F08808087E0808080861
:103BC000083E0000000000000000007C22221C02D1
:103BD0003C42423C000000030202023A464242429A
:103BE00042E700000000000C0C00000E0808080866
:103BF000083E000000000030300000382020202067
:103C00002020221E0000000302020272120A161275
:103C1000227700000000000E0808080808080808BD
:103C2000083E0000000000000000007F9292929287
:103C300092B70000000000000000003B46424242F4
:103C400042E70000000000000000003C4242424207
:103C5000423C0000000000000000001B26424242DF
:103C6000221E020700000000000000784442424289
:103C7000447840E000000000000000774C04040499
:103C8000041F0000000000000000007C42023C40D5
:103C9000423E0000000000000008083E0808080836
:103CA0000830000000000000000000634242424271
:103CB00062DC000000000000000000E74224241441
:103CC0000808000000000000000000EB49495555BD
:103CD00022220000000000000000007624181818BE
:103CE000246E000000000000000000E742242414BD
:103CF00018080807000000000000007E22100808D5
:103D0000447E000000C02020202020102020202001
:103D10002020C000101010101010101010101010E3
:103D200010101010000608080808081008080808F5
:103D3000080806000C32C20000000000000000006D
:103D4000000000000000000000000000C931000871
:103D5000D33100080D36000800000000000000000C
:103D6000000000002336000823360008B5310008A3
:103D7000B73100080000000000000000170F000825
:103D800000000000000000000000000023360008D2
:103D9000000000006269745F6D61736B002E2E5C21
:103DA00063707066776C69625C73746D3332663110
:103DB00030785F5F434F4D4D4F4E2E68002862694B
:103DC000745F6D61736B2D31293D3D30000D0A002C
:103DD000003E0008000000203000000028360008E7
:103DE000303E000830000020E806000038360008A9
:103DF000E9C4FFFF47D2FFFF97F3FFFFEBF3FFFF9D
:103E00007000002000000000000000000000000022
:103E100000000000000000000000000000000000A2
:103E20000000000000000000000000000000000092
:0400000508000131BD
:00000001FF
